{
  "_format": "hh-sol-artifact-1",
  "contractName": "GlobalExitRootManagerL2SovereignChain",
  "sourceName": "contracts/v2/sovereignChains/GlobalExitRootManagerL2SovereignChain.sol",
  "abi": [
    {
      "inputs": [
        {
          "internalType": "address",
          "name": "_bridgeAddress",
          "type": "address"
        }
      ],
      "stateMutability": "nonpayable",
      "type": "constructor"
    },
    {
      "inputs": [],
      "name": "GlobalExitRootAlreadySet",
      "type": "error"
    },
    {
      "inputs": [],
      "name": "GlobalExitRootNotFound",
      "type": "error"
    },
    {
      "inputs": [],
      "name": "OnlyAllowedContracts",
      "type": "error"
    },
    {
      "inputs": [],
      "name": "OnlyGlobalExitRootRemover",
      "type": "error"
    },
    {
      "inputs": [],
      "name": "OnlyGlobalExitRootUpdater",
      "type": "error"
    },
    {
      "anonymous": false,
      "inputs": [
        {
          "indexed": false,
          "internalType": "uint8",
          "name": "version",
          "type": "uint8"
        }
      ],
      "name": "Initialized",
      "type": "event"
    },
    {
      "anonymous": false,
      "inputs": [
        {
          "indexed": true,
          "internalType": "bytes32",
          "name": "newGlobalExitRoot",
          "type": "bytes32"
        }
      ],
      "name": "InsertGlobalExitRoot",
      "type": "event"
    },
    {
      "anonymous": false,
      "inputs": [
        {
          "indexed": true,
          "internalType": "bytes32",
          "name": "removedGlobalExitRoot",
          "type": "bytes32"
        }
      ],
      "name": "RemoveLastGlobalExitRoot",
      "type": "event"
    },
    {
      "anonymous": false,
      "inputs": [
        {
          "indexed": true,
          "internalType": "address",
          "name": "newGlobalExitRootRemover",
          "type": "address"
        }
      ],
      "name": "SetGlobalExitRootRemover",
      "type": "event"
    },
    {
      "anonymous": false,
      "inputs": [
        {
          "indexed": true,
          "internalType": "address",
          "name": "newGlobalExitRootUpdater",
          "type": "address"
        }
      ],
      "name": "SetGlobalExitRootUpdater",
      "type": "event"
    },
    {
      "anonymous": false,
      "inputs": [
        {
          "indexed": true,
          "internalType": "bytes32",
          "name": "newGlobalExitRoot",
          "type": "bytes32"
        },
        {
          "indexed": true,
          "internalType": "bytes32",
          "name": "newHashChainValue",
          "type": "bytes32"
        }
      ],
      "name": "UpdateHashChainValue",
      "type": "event"
    },
    {
      "anonymous": false,
      "inputs": [
        {
          "indexed": true,
          "internalType": "bytes32",
          "name": "removedGlobalExitRoot",
          "type": "bytes32"
        },
        {
          "indexed": true,
          "internalType": "bytes32",
          "name": "newRemovalHashChainValue",
          "type": "bytes32"
        }
      ],
      "name": "UpdateRemovalHashChainValue",
      "type": "event"
    },
    {
      "inputs": [],
      "name": "_legacyInsertedGERCount",
      "outputs": [
        {
          "internalType": "uint256",
          "name": "",
          "type": "uint256"
        }
      ],
      "stateMutability": "view",
      "type": "function"
    },
    {
      "inputs": [],
      "name": "bridgeAddress",
      "outputs": [
        {
          "internalType": "address",
          "name": "",
          "type": "address"
        }
      ],
      "stateMutability": "view",
      "type": "function"
    },
    {
      "inputs": [
        {
          "internalType": "bytes32",
          "name": "",
          "type": "bytes32"
        }
      ],
      "name": "globalExitRootMap",
      "outputs": [
        {
          "internalType": "uint256",
          "name": "",
          "type": "uint256"
        }
      ],
      "stateMutability": "view",
      "type": "function"
    },
    {
      "inputs": [],
      "name": "globalExitRootRemover",
      "outputs": [
        {
          "internalType": "address",
          "name": "",
          "type": "address"
        }
      ],
      "stateMutability": "view",
      "type": "function"
    },
    {
      "inputs": [],
      "name": "globalExitRootUpdater",
      "outputs": [
        {
          "internalType": "address",
          "name": "",
          "type": "address"
        }
      ],
      "stateMutability": "view",
      "type": "function"
    },
    {
      "inputs": [
        {
          "internalType": "address",
          "name": "_globalExitRootUpdater",
          "type": "address"
        },
        {
          "internalType": "address",
          "name": "_globalExitRootRemover",
          "type": "address"
        }
      ],
      "name": "initialize",
      "outputs": [],
      "stateMutability": "nonpayable",
      "type": "function"
    },
    {
      "inputs": [
        {
          "internalType": "bytes32",
          "name": "_newRoot",
          "type": "bytes32"
        }
      ],
      "name": "insertGlobalExitRoot",
      "outputs": [],
      "stateMutability": "nonpayable",
      "type": "function"
    },
    {
      "inputs": [],
      "name": "insertedGERHashChain",
      "outputs": [
        {
          "internalType": "bytes32",
          "name": "",
          "type": "bytes32"
        }
      ],
      "stateMutability": "view",
      "type": "function"
    },
    {
      "inputs": [],
      "name": "lastRollupExitRoot",
      "outputs": [
        {
          "internalType": "bytes32",
          "name": "",
          "type": "bytes32"
        }
      ],
      "stateMutability": "view",
      "type": "function"
    },
    {
      "inputs": [
        {
          "internalType": "bytes32[]",
          "name": "gersToRemove",
          "type": "bytes32[]"
        }
      ],
      "name": "removeGlobalExitRoots",
      "outputs": [],
      "stateMutability": "nonpayable",
      "type": "function"
    },
    {
      "inputs": [
        {
          "internalType": "bytes32[]",
          "name": "gersToRemove",
          "type": "bytes32[]"
        }
      ],
      "name": "removeLastGlobalExitRoots",
      "outputs": [],
      "stateMutability": "nonpayable",
      "type": "function"
    },
    {
      "inputs": [],
      "name": "removedGERHashChain",
      "outputs": [
        {
          "internalType": "bytes32",
          "name": "",
          "type": "bytes32"
        }
      ],
      "stateMutability": "view",
      "type": "function"
    },
    {
      "inputs": [
        {
          "internalType": "address",
          "name": "_globalExitRootRemover",
          "type": "address"
        }
      ],
      "name": "setGlobalExitRootRemover",
      "outputs": [],
      "stateMutability": "nonpayable",
      "type": "function"
    },
    {
      "inputs": [
        {
          "internalType": "address",
          "name": "_globalExitRootUpdater",
          "type": "address"
        }
      ],
      "name": "setGlobalExitRootUpdater",
      "outputs": [],
      "stateMutability": "nonpayable",
      "type": "function"
    },
    {
      "inputs": [
        {
          "internalType": "bytes32",
          "name": "newRoot",
          "type": "bytes32"
        }
      ],
      "name": "updateExitRoot",
      "outputs": [],
      "stateMutability": "nonpayable",
      "type": "function"
    }
  ],
  "bytecode": "0x60a060405234801561000f575f5ffd5b50604051610c61380380610c6183398101604081905261002e91610109565b6001600160a01b038116608052610043610049565b50610136565b603454610100900460ff16156100b55760405162461bcd60e51b815260206004820152602760248201527f496e697469616c697a61626c653a20636f6e747261637420697320696e697469604482015266616c697a696e6760c81b606482015260840160405180910390fd5b60345460ff9081161015610107576034805460ff191660ff9081179091556040519081527f7f26b83ff96e1f2b6a682f133852f6798a09c465da95921460cefb38474024989060200160405180910390a15b565b5f60208284031215610119575f5ffd5b81516001600160a01b038116811461012f575f5ffd5b9392505050565b608051610b0c6101555f395f8181610209015261041b0152610b0c5ff3fe608060405234801561000f575f5ffd5b50600436106100f0575f3560e01c806365f0e34711610093578063a3c573eb11610063578063a3c573eb14610204578063d0267f391461022b578063ec3810a21461023e578063f5d2f04b14610247575f5ffd5b806365f0e347146101735780636da0e4ab146101865780637c314ce31461019957806391eb796d146101e4575f5ffd5b8063257b3632116100ce578063257b36321461012e57806333d6247d1461014d578063485cc9551461016057806357dfb57214610173575f5ffd5b806301fd9044146100f457806312da06b214610110578063163bbb4614610125575b5f5ffd5b6100fd60015481565b6040519081526020015b60405180910390f35b61012361011e3660046109a8565b610250565b005b6100fd60375481565b6100fd61013c3660046109a8565b5f6020819052908152604090205481565b61012361015b3660046109a8565b610403565b61012361016e3660046109e7565b610477565b610123610181366004610a18565b61062d565b610123610194366004610a89565b61068c565b6034546101bf9062010000900473ffffffffffffffffffffffffffffffffffffffff1681565b60405173ffffffffffffffffffffffffffffffffffffffff9091168152602001610107565b6035546101bf9073ffffffffffffffffffffffffffffffffffffffff1681565b6101bf7f000000000000000000000000000000000000000000000000000000000000000081565b610123610239366004610a89565b6107ba565b6100fd60365481565b6100fd60385481565b60345462010000900473ffffffffffffffffffffffffffffffffffffffff166102b1574133146102ac576040517fc758fc1a00000000000000000000000000000000000000000000000000000000815260040160405180910390fd5b610308565b60345462010000900473ffffffffffffffffffffffffffffffffffffffff163314610308576040517fc758fc1a00000000000000000000000000000000000000000000000000000000815260040160405180910390fd5b5f8181526020819052604081205490036103d1575f8181526020818152604091829020429055603754825191820152908101829052606001604080517fffffffffffffffffffffffffffffffffffffffffffffffffffffffffffffffe081840301815290829052805160209091012060375581907fb1b866fe5fac68e8f1a4ab2520c7a6b493a954934bbd0f054bd91d6674a4c0d5905f90a260375460405182907f65d3bf36615f1f02a134d12dfa9ea6b1d4a52386e825973cd27ddb70895c2319905f90a350565b6040517f1f97a58200000000000000000000000000000000000000000000000000000000815260040160405180910390fd5b3373ffffffffffffffffffffffffffffffffffffffff7f00000000000000000000000000000000000000000000000000000000000000001614610472576040517fb49365dd00000000000000000000000000000000000000000000000000000000815260040160405180910390fd5b600155565b603454600290610100900460ff16158015610499575060345460ff8083169116105b610529576040517f08c379a000000000000000000000000000000000000000000000000000000000815260206004820152602e60248201527f496e697469616c697a61626c653a20636f6e747261637420697320616c72656160448201527f647920696e697469616c697a6564000000000000000000000000000000000000606482015260840160405180910390fd5b603480546035805473ffffffffffffffffffffffffffffffffffffffff8681167fffffffffffffffffffffffff000000000000000000000000000000000000000090921691909117909155851662010000027fffffffffffffffffffffffffffffffffffffffffffffffffffffffffffff00ff167fffffffffffffffffffff000000000000000000000000000000000000000000ff7fffffffffffffffffffffffffffffffffffffffffffffffffffffffffffff000090921660ff85169081176101001792909216179091556040519081527f7f26b83ff96e1f2b6a682f133852f6798a09c465da95921460cefb38474024989060200160405180910390a1505050565b60355473ffffffffffffffffffffffffffffffffffffffff16331461067e576040517fa34ddeb100000000000000000000000000000000000000000000000000000000815260040160405180910390fd5b6106888282610878565b5050565b60345462010000900473ffffffffffffffffffffffffffffffffffffffff166106ed574133146106e8576040517fc758fc1a00000000000000000000000000000000000000000000000000000000815260040160405180910390fd5b610744565b60345462010000900473ffffffffffffffffffffffffffffffffffffffff163314610744576040517fc758fc1a00000000000000000000000000000000000000000000000000000000815260040160405180910390fd5b603480547fffffffffffffffffffff0000000000000000000000000000000000000000ffff166201000073ffffffffffffffffffffffffffffffffffffffff8416908102919091179091556040517f992b80814dbc3fba903486d81daddb07d1d5b20483742458c8b0540e3a37e37c905f90a250565b60355473ffffffffffffffffffffffffffffffffffffffff16331461080b576040517fa34ddeb100000000000000000000000000000000000000000000000000000000815260040160405180910390fd5b603580547fffffffffffffffffffffffff00000000000000000000000000000000000000001673ffffffffffffffffffffffffffffffffffffffff83169081179091556040517eb4672b6135d1dfbd4e9520e01abb14ea5eac645990b0d24dfda00ae999b758905f90a250565b6038545f5b828110156109a0575f84848381811061089857610898610aa9565b9050602002013590505f5f8281526020019081526020015f20545f036108ea576040517ff4a66f9d00000000000000000000000000000000000000000000000000000000815260040160405180910390fd5b6040805160208101859052908101829052606001604080517fffffffffffffffffffffffffffffffffffffffffffffffffffffffffffffffe081840301815282825280516020918201205f8581529182905291812081905590945082917f605764d0b65b62ecf05dc90f674a00a2e2531fabaf120fdde65790e407fcb7a29190a2604051839082907faafec9380147d2b2b14fe23b1343cbaa1b07f86c5adb060bd28cdf1af4c6f0d4905f90a35060010161087d565b506038555050565b5f602082840312156109b8575f5ffd5b5035919050565b803573ffffffffffffffffffffffffffffffffffffffff811681146109e2575f5ffd5b919050565b5f5f604083850312156109f8575f5ffd5b610a01836109bf565b9150610a0f602084016109bf565b90509250929050565b5f5f60208385031215610a29575f5ffd5b823567ffffffffffffffff811115610a3f575f5ffd5b8301601f81018513610a4f575f5ffd5b803567ffffffffffffffff811115610a65575f5ffd5b8560208260051b8401011115610a79575f5ffd5b6020919091019590945092505050565b5f60208284031215610a99575f5ffd5b610aa2826109bf565b9392505050565b7f4e487b71000000000000000000000000000000000000000000000000000000005f52603260045260245ffdfea26469706673582212202f7fdd6cbd5b6c4ff824627bf7c5282a63853a9289d50051af424f3ccfceff9664736f6c634300081c0033",
  "linkReferences": {},
  "deployedLinkReferences": {}
}