{
  "_format": "hh-sol-artifact-1",
  "contractName": "PolygonRollupManagerMock",
  "sourceName": "contracts/v2/mocks/PolygonRollupManagerMock.sol",
  "abi": [
    {
      "inputs": [
        {
          "internalType": "contract IPolygonZkEVMGlobalExitRootV2",
          "name": "_globalExitRootManager",
          "type": "address"
        },
        {
          "internalType": "contract IERC20Upgradeable",
          "name": "_pol",
          "type": "address"
        },
        {
          "internalType": "contract IPolygonZkEVMBridge",
          "name": "_bridgeAddress",
          "type": "address"
        }
      ],
      "stateMutability": "nonpayable",
      "type": "constructor"
    },
    {
      "inputs": [],
      "name": "AccessControlOnlyCanRenounceRolesForSelf",
      "type": "error"
    },
    {
      "inputs": [],
      "name": "AddressDoNotHaveRequiredRole",
      "type": "error"
    },
    {
      "inputs": [],
      "name": "AllBatchesMustBeVerified",
      "type": "error"
    },
    {
      "inputs": [],
      "name": "AllSequencedMustBeVerified",
      "type": "error"
    },
    {
      "inputs": [],
      "name": "AllzkEVMSequencedBatchesMustBeVerified",
      "type": "error"
    },
    {
      "inputs": [],
      "name": "BatchFeeOutOfRange",
      "type": "error"
    },
    {
      "inputs": [],
      "name": "CannotUpdateWithUnconsolidatedPendingState",
      "type": "error"
    },
    {
      "inputs": [],
      "name": "ChainIDAlreadyExist",
      "type": "error"
    },
    {
      "inputs": [],
      "name": "ChainIDOutOfRange",
      "type": "error"
    },
    {
      "inputs": [],
      "name": "EmptyVerifySequencesData",
      "type": "error"
    },
    {
      "inputs": [],
      "name": "ExceedMaxVerifyBatches",
      "type": "error"
    },
    {
      "inputs": [],
      "name": "FinalNumBatchBelowLastVerifiedBatch",
      "type": "error"
    },
    {
      "inputs": [],
      "name": "FinalNumBatchDoesNotMatchPendingState",
      "type": "error"
    },
    {
      "inputs": [],
      "name": "FinalNumSequenceBelowLastVerifiedSequence",
      "type": "error"
    },
    {
      "inputs": [],
      "name": "FinalNumSequenceDoesNotMatchPendingState",
      "type": "error"
    },
    {
      "inputs": [],
      "name": "FinalPendingStateNumInvalid",
      "type": "error"
    },
    {
      "inputs": [],
      "name": "HaltTimeoutNotExpired",
      "type": "error"
    },
    {
      "inputs": [],
      "name": "InitBatchMustMatchCurrentForkID",
      "type": "error"
    },
    {
      "inputs": [],
      "name": "InitNumBatchAboveLastVerifiedBatch",
      "type": "error"
    },
    {
      "inputs": [],
      "name": "InitNumBatchDoesNotMatchPendingState",
      "type": "error"
    },
    {
      "inputs": [],
      "name": "InitSequenceMustMatchCurrentForkID",
      "type": "error"
    },
    {
      "inputs": [],
      "name": "InitSequenceNumDoesNotMatchPendingState",
      "type": "error"
    },
    {
      "inputs": [],
      "name": "InvalidPessimisticProof",
      "type": "error"
    },
    {
      "inputs": [],
      "name": "InvalidProof",
      "type": "error"
    },
    {
      "inputs": [],
      "name": "InvalidRangeBatchTimeTarget",
      "type": "error"
    },
    {
      "inputs": [],
      "name": "InvalidRangeMultiplierBatchFee",
      "type": "error"
    },
    {
      "inputs": [],
      "name": "InvalidRangeMultiplierZkGasPrice",
      "type": "error"
    },
    {
      "inputs": [],
      "name": "InvalidRangeSequenceTimeTarget",
      "type": "error"
    },
    {
      "inputs": [],
      "name": "InvalidRollup",
      "type": "error"
    },
    {
      "inputs": [],
      "name": "InvalidRollupType",
      "type": "error"
    },
    {
      "inputs": [],
      "name": "InvalidVerifierType",
      "type": "error"
    },
    {
      "inputs": [],
      "name": "L1InfoTreeLeafCountInvalid",
      "type": "error"
    },
    {
      "inputs": [],
      "name": "MustSequenceSomeBatch",
      "type": "error"
    },
    {
      "inputs": [],
      "name": "MustSequenceSomeBlob",
      "type": "error"
    },
    {
      "inputs": [],
      "name": "NewAccInputHashDoesNotExist",
      "type": "error"
    },
    {
      "inputs": [],
      "name": "NewPendingStateTimeoutMustBeLower",
      "type": "error"
    },
    {
      "inputs": [],
      "name": "NewStateRootNotInsidePrime",
      "type": "error"
    },
    {
      "inputs": [],
      "name": "NewTrustedAggregatorTimeoutMustBeLower",
      "type": "error"
    },
    {
      "inputs": [],
      "name": "NotAllowedAddress",
      "type": "error"
    },
    {
      "inputs": [],
      "name": "OldAccInputHashDoesNotExist",
      "type": "error"
    },
    {
      "inputs": [],
      "name": "OldStateRootDoesNotExist",
      "type": "error"
    },
    {
      "inputs": [],
      "name": "OnlyChainsWithPessimisticProofs",
      "type": "error"
    },
    {
      "inputs": [],
      "name": "OnlyEmergencyState",
      "type": "error"
    },
    {
      "inputs": [],
      "name": "OnlyNotEmergencyState",
      "type": "error"
    },
    {
      "inputs": [],
      "name": "OnlyRollupAdmin",
      "type": "error"
    },
    {
      "inputs": [],
      "name": "OnlyStateTransitionChains",
      "type": "error"
    },
    {
      "inputs": [],
      "name": "PendingStateDoesNotExist",
      "type": "error"
    },
    {
      "inputs": [],
      "name": "PendingStateInvalid",
      "type": "error"
    },
    {
      "inputs": [],
      "name": "PendingStateNotConsolidable",
      "type": "error"
    },
    {
      "inputs": [],
      "name": "PendingStateNumExist",
      "type": "error"
    },
    {
      "inputs": [],
      "name": "RollbackBatchIsNotEndOfSequence",
      "type": "error"
    },
    {
      "inputs": [],
      "name": "RollbackBatchIsNotValid",
      "type": "error"
    },
    {
      "inputs": [],
      "name": "RollupAddressAlreadyExist",
      "type": "error"
    },
    {
      "inputs": [],
      "name": "RollupIDNotAscendingOrder",
      "type": "error"
    },
    {
      "inputs": [],
      "name": "RollupMustExist",
      "type": "error"
    },
    {
      "inputs": [],
      "name": "RollupTypeDoesNotExist",
      "type": "error"
    },
    {
      "inputs": [],
      "name": "RollupTypeObsolete",
      "type": "error"
    },
    {
      "inputs": [],
      "name": "SenderMustBeRollup",
      "type": "error"
    },
    {
      "inputs": [],
      "name": "StoredRootMustBeDifferentThanNewRoot",
      "type": "error"
    },
    {
      "inputs": [],
      "name": "TrustedAggregatorTimeoutNotExpired",
      "type": "error"
    },
    {
      "inputs": [],
      "name": "UpdateNotCompatible",
      "type": "error"
    },
    {
      "inputs": [],
      "name": "UpdateToOldRollupTypeID",
      "type": "error"
    },
    {
      "inputs": [],
      "name": "UpdateToSameRollupTypeID",
      "type": "error"
    },
    {
      "inputs": [],
      "name": "zkGasPriceOfRange",
      "type": "error"
    },
    {
      "anonymous": false,
      "inputs": [
        {
          "indexed": true,
          "internalType": "uint32",
          "name": "rollupID",
          "type": "uint32"
        },
        {
          "indexed": false,
          "internalType": "uint64",
          "name": "forkID",
          "type": "uint64"
        },
        {
          "indexed": false,
          "internalType": "address",
          "name": "rollupAddress",
          "type": "address"
        },
        {
          "indexed": false,
          "internalType": "uint64",
          "name": "chainID",
          "type": "uint64"
        },
        {
          "indexed": false,
          "internalType": "enum IPolygonRollupManager.VerifierType",
          "name": "rollupVerifierType",
          "type": "uint8"
        },
        {
          "indexed": false,
          "internalType": "uint64",
          "name": "lastVerifiedBatchBeforeUpgrade",
          "type": "uint64"
        },
        {
          "indexed": false,
          "internalType": "bytes32",
          "name": "programVKey",
          "type": "bytes32"
        }
      ],
      "name": "AddExistingRollup",
      "type": "event"
    },
    {
      "anonymous": false,
      "inputs": [
        {
          "indexed": true,
          "internalType": "uint32",
          "name": "rollupTypeID",
          "type": "uint32"
        },
        {
          "indexed": false,
          "internalType": "address",
          "name": "consensusImplementation",
          "type": "address"
        },
        {
          "indexed": false,
          "internalType": "address",
          "name": "verifier",
          "type": "address"
        },
        {
          "indexed": false,
          "internalType": "uint64",
          "name": "forkID",
          "type": "uint64"
        },
        {
          "indexed": false,
          "internalType": "enum IPolygonRollupManager.VerifierType",
          "name": "rollupVerifierType",
          "type": "uint8"
        },
        {
          "indexed": false,
          "internalType": "bytes32",
          "name": "genesis",
          "type": "bytes32"
        },
        {
          "indexed": false,
          "internalType": "string",
          "name": "description",
          "type": "string"
        },
        {
          "indexed": false,
          "internalType": "bytes32",
          "name": "programVKey",
          "type": "bytes32"
        }
      ],
      "name": "AddNewRollupType",
      "type": "event"
    },
    {
      "anonymous": false,
      "inputs": [
        {
          "indexed": true,
          "internalType": "uint32",
          "name": "rollupID",
          "type": "uint32"
        },
        {
          "indexed": false,
          "internalType": "uint32",
          "name": "rollupTypeID",
          "type": "uint32"
        },
        {
          "indexed": false,
          "internalType": "address",
          "name": "rollupAddress",
          "type": "address"
        },
        {
          "indexed": false,
          "internalType": "uint64",
          "name": "chainID",
          "type": "uint64"
        },
        {
          "indexed": false,
          "internalType": "address",
          "name": "gasTokenAddress",
          "type": "address"
        }
      ],
      "name": "CreateNewRollup",
      "type": "event"
    },
    {
      "anonymous": false,
      "inputs": [],
      "name": "EmergencyStateActivated",
      "type": "event"
    },
    {
      "anonymous": false,
      "inputs": [],
      "name": "EmergencyStateDeactivated",
      "type": "event"
    },
    {
      "anonymous": false,
      "inputs": [
        {
          "indexed": false,
          "internalType": "uint8",
          "name": "version",
          "type": "uint8"
        }
      ],
      "name": "Initialized",
      "type": "event"
    },
    {
      "anonymous": false,
      "inputs": [
        {
          "indexed": true,
          "internalType": "uint32",
          "name": "rollupTypeID",
          "type": "uint32"
        }
      ],
      "name": "ObsoleteRollupType",
      "type": "event"
    },
    {
      "anonymous": false,
      "inputs": [
        {
          "indexed": true,
          "internalType": "uint32",
          "name": "rollupID",
          "type": "uint32"
        },
        {
          "indexed": false,
          "internalType": "uint64",
          "name": "lastBatchSequenced",
          "type": "uint64"
        }
      ],
      "name": "OnSequenceBatches",
      "type": "event"
    },
    {
      "anonymous": false,
      "inputs": [
        {
          "indexed": true,
          "internalType": "bytes32",
          "name": "role",
          "type": "bytes32"
        },
        {
          "indexed": true,
          "internalType": "bytes32",
          "name": "previousAdminRole",
          "type": "bytes32"
        },
        {
          "indexed": true,
          "internalType": "bytes32",
          "name": "newAdminRole",
          "type": "bytes32"
        }
      ],
      "name": "RoleAdminChanged",
      "type": "event"
    },
    {
      "anonymous": false,
      "inputs": [
        {
          "indexed": true,
          "internalType": "bytes32",
          "name": "role",
          "type": "bytes32"
        },
        {
          "indexed": true,
          "internalType": "address",
          "name": "account",
          "type": "address"
        },
        {
          "indexed": true,
          "internalType": "address",
          "name": "sender",
          "type": "address"
        }
      ],
      "name": "RoleGranted",
      "type": "event"
    },
    {
      "anonymous": false,
      "inputs": [
        {
          "indexed": true,
          "internalType": "bytes32",
          "name": "role",
          "type": "bytes32"
        },
        {
          "indexed": true,
          "internalType": "address",
          "name": "account",
          "type": "address"
        },
        {
          "indexed": true,
          "internalType": "address",
          "name": "sender",
          "type": "address"
        }
      ],
      "name": "RoleRevoked",
      "type": "event"
    },
    {
      "anonymous": false,
      "inputs": [
        {
          "indexed": true,
          "internalType": "uint32",
          "name": "rollupID",
          "type": "uint32"
        },
        {
          "indexed": true,
          "internalType": "uint64",
          "name": "targetBatch",
          "type": "uint64"
        },
        {
          "indexed": false,
          "internalType": "bytes32",
          "name": "accInputHashToRollback",
          "type": "bytes32"
        }
      ],
      "name": "RollbackBatches",
      "type": "event"
    },
    {
      "anonymous": false,
      "inputs": [
        {
          "indexed": false,
          "internalType": "uint256",
          "name": "newBatchFee",
          "type": "uint256"
        }
      ],
      "name": "SetBatchFee",
      "type": "event"
    },
    {
      "anonymous": false,
      "inputs": [
        {
          "indexed": false,
          "internalType": "address",
          "name": "newTrustedAggregator",
          "type": "address"
        }
      ],
      "name": "SetTrustedAggregator",
      "type": "event"
    },
    {
      "anonymous": false,
      "inputs": [
        {
          "indexed": true,
          "internalType": "uint32",
          "name": "rollupID",
          "type": "uint32"
        },
        {
          "indexed": false,
          "internalType": "uint32",
          "name": "newRollupTypeID",
          "type": "uint32"
        },
        {
          "indexed": false,
          "internalType": "uint64",
          "name": "lastVerifiedBatchBeforeUpgrade",
          "type": "uint64"
        }
      ],
      "name": "UpdateRollup",
      "type": "event"
    },
    {
      "anonymous": false,
      "inputs": [
        {
          "indexed": false,
          "internalType": "string",
          "name": "rollupManagerVersion",
          "type": "string"
        }
      ],
      "name": "UpdateRollupManagerVersion",
      "type": "event"
    },
    {
      "anonymous": false,
      "inputs": [
        {
          "indexed": true,
          "internalType": "uint32",
          "name": "rollupID",
          "type": "uint32"
        },
        {
          "indexed": false,
          "internalType": "uint64",
          "name": "numBatch",
          "type": "uint64"
        },
        {
          "indexed": false,
          "internalType": "bytes32",
          "name": "stateRoot",
          "type": "bytes32"
        },
        {
          "indexed": false,
          "internalType": "bytes32",
          "name": "exitRoot",
          "type": "bytes32"
        },
        {
          "indexed": true,
          "internalType": "address",
          "name": "aggregator",
          "type": "address"
        }
      ],
      "name": "VerifyBatchesTrustedAggregator",
      "type": "event"
    },
    {
      "inputs": [],
      "name": "DEFAULT_ADMIN_ROLE",
      "outputs": [
        {
          "internalType": "bytes32",
          "name": "",
          "type": "bytes32"
        }
      ],
      "stateMutability": "view",
      "type": "function"
    },
    {
      "inputs": [],
      "name": "ROLLUP_MANAGER_VERSION",
      "outputs": [
        {
          "internalType": "string",
          "name": "",
          "type": "string"
        }
      ],
      "stateMutability": "view",
      "type": "function"
    },
    {
      "inputs": [],
      "name": "activateEmergencyState",
      "outputs": [],
      "stateMutability": "nonpayable",
      "type": "function"
    },
    {
      "inputs": [
        {
          "internalType": "contract IPolygonRollupBase",
          "name": "rollupAddress",
          "type": "address"
        },
        {
          "internalType": "address",
          "name": "verifier",
          "type": "address"
        },
        {
          "internalType": "uint64",
          "name": "forkID",
          "type": "uint64"
        },
        {
          "internalType": "uint64",
          "name": "chainID",
          "type": "uint64"
        },
        {
          "internalType": "bytes32",
          "name": "initRoot",
          "type": "bytes32"
        },
        {
          "internalType": "enum IPolygonRollupManager.VerifierType",
          "name": "rollupVerifierType",
          "type": "uint8"
        },
        {
          "internalType": "bytes32",
          "name": "programVKey",
          "type": "bytes32"
        }
      ],
      "name": "addExistingRollup",
      "outputs": [],
      "stateMutability": "nonpayable",
      "type": "function"
    },
    {
      "inputs": [
        {
          "internalType": "address",
          "name": "consensusImplementation",
          "type": "address"
        },
        {
          "internalType": "address",
          "name": "verifier",
          "type": "address"
        },
        {
          "internalType": "uint64",
          "name": "forkID",
          "type": "uint64"
        },
        {
          "internalType": "enum IPolygonRollupManager.VerifierType",
          "name": "rollupVerifierType",
          "type": "uint8"
        },
        {
          "internalType": "bytes32",
          "name": "genesis",
          "type": "bytes32"
        },
        {
          "internalType": "string",
          "name": "description",
          "type": "string"
        },
        {
          "internalType": "bytes32",
          "name": "programVKey",
          "type": "bytes32"
        }
      ],
      "name": "addNewRollupType",
      "outputs": [],
      "stateMutability": "nonpayable",
      "type": "function"
    },
    {
      "inputs": [],
      "name": "bridgeAddress",
      "outputs": [
        {
          "internalType": "contract IPolygonZkEVMBridge",
          "name": "",
          "type": "address"
        }
      ],
      "stateMutability": "view",
      "type": "function"
    },
    {
      "inputs": [],
      "name": "calculateRewardPerBatch",
      "outputs": [
        {
          "internalType": "uint256",
          "name": "",
          "type": "uint256"
        }
      ],
      "stateMutability": "view",
      "type": "function"
    },
    {
      "inputs": [
        {
          "internalType": "uint64",
          "name": "chainID",
          "type": "uint64"
        }
      ],
      "name": "chainIDToRollupID",
      "outputs": [
        {
          "internalType": "uint32",
          "name": "rollupID",
          "type": "uint32"
        }
      ],
      "stateMutability": "view",
      "type": "function"
    },
    {
      "inputs": [
        {
          "internalType": "uint32",
          "name": "rollupTypeID",
          "type": "uint32"
        },
        {
          "internalType": "uint64",
          "name": "chainID",
          "type": "uint64"
        },
        {
          "internalType": "address",
          "name": "admin",
          "type": "address"
        },
        {
          "internalType": "address",
          "name": "sequencer",
          "type": "address"
        },
        {
          "internalType": "address",
          "name": "gasTokenAddress",
          "type": "address"
        },
        {
          "internalType": "string",
          "name": "sequencerURL",
          "type": "string"
        },
        {
          "internalType": "string",
          "name": "networkName",
          "type": "string"
        }
      ],
      "name": "createNewRollup",
      "outputs": [],
      "stateMutability": "nonpayable",
      "type": "function"
    },
    {
      "inputs": [],
      "name": "deactivateEmergencyState",
      "outputs": [],
      "stateMutability": "nonpayable",
      "type": "function"
    },
    {
      "inputs": [
        {
          "internalType": "uint256",
          "name": "newStateRoot",
          "type": "uint256"
        }
      ],
      "name": "exposed_checkStateRootInsidePrime",
      "outputs": [
        {
          "internalType": "bool",
          "name": "",
          "type": "bool"
        }
      ],
      "stateMutability": "pure",
      "type": "function"
    },
    {
      "inputs": [],
      "name": "getBatchFee",
      "outputs": [
        {
          "internalType": "uint256",
          "name": "",
          "type": "uint256"
        }
      ],
      "stateMutability": "view",
      "type": "function"
    },
    {
      "inputs": [],
      "name": "getForcedBatchFee",
      "outputs": [
        {
          "internalType": "uint256",
          "name": "",
          "type": "uint256"
        }
      ],
      "stateMutability": "view",
      "type": "function"
    },
    {
      "inputs": [
        {
          "internalType": "uint32",
          "name": "rollupID",
          "type": "uint32"
        },
        {
          "internalType": "bytes32",
          "name": "l1InfoTreeRoot",
          "type": "bytes32"
        },
        {
          "internalType": "bytes32",
          "name": "newLocalExitRoot",
          "type": "bytes32"
        },
        {
          "internalType": "bytes32",
          "name": "newPessimisticRoot",
          "type": "bytes32"
        }
      ],
      "name": "getInputPessimisticBytes",
      "outputs": [
        {
          "internalType": "bytes",
          "name": "",
          "type": "bytes"
        }
      ],
      "stateMutability": "view",
      "type": "function"
    },
    {
      "inputs": [
        {
          "internalType": "uint32",
          "name": "rollupID",
          "type": "uint32"
        },
        {
          "internalType": "uint64",
          "name": "initNumBatch",
          "type": "uint64"
        },
        {
          "internalType": "uint64",
          "name": "finalNewBatch",
          "type": "uint64"
        },
        {
          "internalType": "bytes32",
          "name": "newLocalExitRoot",
          "type": "bytes32"
        },
        {
          "internalType": "bytes32",
          "name": "oldStateRoot",
          "type": "bytes32"
        },
        {
          "internalType": "bytes32",
          "name": "newStateRoot",
          "type": "bytes32"
        }
      ],
      "name": "getInputSnarkBytes",
      "outputs": [
        {
          "internalType": "bytes",
          "name": "",
          "type": "bytes"
        }
      ],
      "stateMutability": "view",
      "type": "function"
    },
    {
      "inputs": [
        {
          "internalType": "uint32",
          "name": "rollupID",
          "type": "uint32"
        }
      ],
      "name": "getLastVerifiedBatch",
      "outputs": [
        {
          "internalType": "uint64",
          "name": "",
          "type": "uint64"
        }
      ],
      "stateMutability": "view",
      "type": "function"
    },
    {
      "inputs": [
        {
          "internalType": "bytes32",
          "name": "role",
          "type": "bytes32"
        }
      ],
      "name": "getRoleAdmin",
      "outputs": [
        {
          "internalType": "bytes32",
          "name": "",
          "type": "bytes32"
        }
      ],
      "stateMutability": "view",
      "type": "function"
    },
    {
      "inputs": [
        {
          "internalType": "uint32",
          "name": "rollupID",
          "type": "uint32"
        },
        {
          "internalType": "uint64",
          "name": "batchNum",
          "type": "uint64"
        }
      ],
      "name": "getRollupBatchNumToStateRoot",
      "outputs": [
        {
          "internalType": "bytes32",
          "name": "",
          "type": "bytes32"
        }
      ],
      "stateMutability": "view",
      "type": "function"
    },
    {
      "inputs": [],
      "name": "getRollupExitRoot",
      "outputs": [
        {
          "internalType": "bytes32",
          "name": "",
          "type": "bytes32"
        }
      ],
      "stateMutability": "view",
      "type": "function"
    },
    {
      "inputs": [
        {
          "internalType": "uint32",
          "name": "rollupID",
          "type": "uint32"
        },
        {
          "internalType": "uint64",
          "name": "batchNum",
          "type": "uint64"
        }
      ],
      "name": "getRollupSequencedBatches",
      "outputs": [
        {
          "components": [
            {
              "internalType": "bytes32",
              "name": "accInputHash",
              "type": "bytes32"
            },
            {
              "internalType": "uint64",
              "name": "sequencedTimestamp",
              "type": "uint64"
            },
            {
              "internalType": "uint64",
              "name": "previousLastBatchSequenced",
              "type": "uint64"
            }
          ],
          "internalType": "struct LegacyZKEVMStateVariables.SequencedBatchData",
          "name": "",
          "type": "tuple"
        }
      ],
      "stateMutability": "view",
      "type": "function"
    },
    {
      "inputs": [],
      "name": "globalExitRootManager",
      "outputs": [
        {
          "internalType": "contract IPolygonZkEVMGlobalExitRootV2",
          "name": "",
          "type": "address"
        }
      ],
      "stateMutability": "view",
      "type": "function"
    },
    {
      "inputs": [
        {
          "internalType": "bytes32",
          "name": "role",
          "type": "bytes32"
        },
        {
          "internalType": "address",
          "name": "account",
          "type": "address"
        }
      ],
      "name": "grantRole",
      "outputs": [],
      "stateMutability": "nonpayable",
      "type": "function"
    },
    {
      "inputs": [
        {
          "internalType": "bytes32",
          "name": "role",
          "type": "bytes32"
        },
        {
          "internalType": "address",
          "name": "account",
          "type": "address"
        }
      ],
      "name": "hasRole",
      "outputs": [
        {
          "internalType": "bool",
          "name": "",
          "type": "bool"
        }
      ],
      "stateMutability": "view",
      "type": "function"
    },
    {
      "inputs": [],
      "name": "initialize",
      "outputs": [],
      "stateMutability": "nonpayable",
      "type": "function"
    },
    {
      "inputs": [
        {
          "internalType": "address",
          "name": "trustedAggregator",
          "type": "address"
        },
        {
          "internalType": "uint64",
          "name": "_pendingStateTimeout",
          "type": "uint64"
        },
        {
          "internalType": "uint64",
          "name": "_trustedAggregatorTimeout",
          "type": "uint64"
        },
        {
          "internalType": "address",
          "name": "admin",
          "type": "address"
        },
        {
          "internalType": "address",
          "name": "timelock",
          "type": "address"
        },
        {
          "internalType": "address",
          "name": "emergencyCouncil",
          "type": "address"
        }
      ],
      "name": "initializeMock",
      "outputs": [],
      "stateMutability": "nonpayable",
      "type": "function"
    },
    {
      "inputs": [],
      "name": "isEmergencyState",
      "outputs": [
        {
          "internalType": "bool",
          "name": "",
          "type": "bool"
        }
      ],
      "stateMutability": "view",
      "type": "function"
    },
    {
      "inputs": [],
      "name": "lastAggregationTimestamp",
      "outputs": [
        {
          "internalType": "uint64",
          "name": "",
          "type": "uint64"
        }
      ],
      "stateMutability": "view",
      "type": "function"
    },
    {
      "inputs": [],
      "name": "lastDeactivatedEmergencyStateTimestamp",
      "outputs": [
        {
          "internalType": "uint64",
          "name": "",
          "type": "uint64"
        }
      ],
      "stateMutability": "view",
      "type": "function"
    },
    {
      "inputs": [
        {
          "internalType": "uint32",
          "name": "rollupTypeID",
          "type": "uint32"
        }
      ],
      "name": "obsoleteRollupType",
      "outputs": [],
      "stateMutability": "nonpayable",
      "type": "function"
    },
    {
      "inputs": [
        {
          "internalType": "uint64",
          "name": "newSequencedBatches",
          "type": "uint64"
        },
        {
          "internalType": "bytes32",
          "name": "newAccInputHash",
          "type": "bytes32"
        }
      ],
      "name": "onSequenceBatches",
      "outputs": [
        {
          "internalType": "uint64",
          "name": "",
          "type": "uint64"
        }
      ],
      "stateMutability": "nonpayable",
      "type": "function"
    },
    {
      "inputs": [],
      "name": "pol",
      "outputs": [
        {
          "internalType": "contract IERC20Upgradeable",
          "name": "",
          "type": "address"
        }
      ],
      "stateMutability": "view",
      "type": "function"
    },
    {
      "inputs": [
        {
          "internalType": "bytes32[]",
          "name": "localExitRoots",
          "type": "bytes32[]"
        }
      ],
      "name": "prepareMockCalculateRoot",
      "outputs": [],
      "stateMutability": "nonpayable",
      "type": "function"
    },
    {
      "inputs": [
        {
          "internalType": "bytes32",
          "name": "role",
          "type": "bytes32"
        },
        {
          "internalType": "address",
          "name": "account",
          "type": "address"
        }
      ],
      "name": "renounceRole",
      "outputs": [],
      "stateMutability": "nonpayable",
      "type": "function"
    },
    {
      "inputs": [
        {
          "internalType": "bytes32",
          "name": "role",
          "type": "bytes32"
        },
        {
          "internalType": "address",
          "name": "account",
          "type": "address"
        }
      ],
      "name": "revokeRole",
      "outputs": [],
      "stateMutability": "nonpayable",
      "type": "function"
    },
    {
      "inputs": [
        {
          "internalType": "contract IPolygonRollupBase",
          "name": "rollupContract",
          "type": "address"
        },
        {
          "internalType": "uint64",
          "name": "targetBatch",
          "type": "uint64"
        }
      ],
      "name": "rollbackBatches",
      "outputs": [],
      "stateMutability": "nonpayable",
      "type": "function"
    },
    {
      "inputs": [
        {
          "internalType": "address",
          "name": "rollupAddress",
          "type": "address"
        }
      ],
      "name": "rollupAddressToID",
      "outputs": [
        {
          "internalType": "uint32",
          "name": "rollupID",
          "type": "uint32"
        }
      ],
      "stateMutability": "view",
      "type": "function"
    },
    {
      "inputs": [],
      "name": "rollupCount",
      "outputs": [
        {
          "internalType": "uint32",
          "name": "",
          "type": "uint32"
        }
      ],
      "stateMutability": "view",
      "type": "function"
    },
    {
      "inputs": [
        {
          "internalType": "uint32",
          "name": "rollupID",
          "type": "uint32"
        }
      ],
      "name": "rollupIDToRollupData",
      "outputs": [
        {
          "components": [
            {
              "internalType": "contract IPolygonRollupBase",
              "name": "rollupContract",
              "type": "address"
            },
            {
              "internalType": "uint64",
              "name": "chainID",
              "type": "uint64"
            },
            {
              "internalType": "address",
              "name": "verifier",
              "type": "address"
            },
            {
              "internalType": "uint64",
              "name": "forkID",
              "type": "uint64"
            },
            {
              "internalType": "bytes32",
              "name": "lastLocalExitRoot",
              "type": "bytes32"
            },
            {
              "internalType": "uint64",
              "name": "lastBatchSequenced",
              "type": "uint64"
            },
            {
              "internalType": "uint64",
              "name": "lastVerifiedBatch",
              "type": "uint64"
            },
            {
              "internalType": "uint64",
              "name": "_legacyLastPendingState",
              "type": "uint64"
            },
            {
              "internalType": "uint64",
              "name": "_legacyLastPendingStateConsolidated",
              "type": "uint64"
            },
            {
              "internalType": "uint64",
              "name": "lastVerifiedBatchBeforeUpgrade",
              "type": "uint64"
            },
            {
              "internalType": "uint64",
              "name": "rollupTypeID",
              "type": "uint64"
            },
            {
              "internalType": "enum IPolygonRollupManager.VerifierType",
              "name": "rollupVerifierType",
              "type": "uint8"
            }
          ],
          "internalType": "struct PolygonRollupManager.RollupDataReturn",
          "name": "rollupData",
          "type": "tuple"
        }
      ],
      "stateMutability": "view",
      "type": "function"
    },
    {
      "inputs": [
        {
          "internalType": "uint32",
          "name": "rollupID",
          "type": "uint32"
        }
      ],
      "name": "rollupIDToRollupDataV2",
      "outputs": [
        {
          "components": [
            {
              "internalType": "address",
              "name": "rollupContract",
              "type": "address"
            },
            {
              "internalType": "uint64",
              "name": "chainID",
              "type": "uint64"
            },
            {
              "internalType": "address",
              "name": "verifier",
              "type": "address"
            },
            {
              "internalType": "uint64",
              "name": "forkID",
              "type": "uint64"
            },
            {
              "internalType": "bytes32",
              "name": "lastLocalExitRoot",
              "type": "bytes32"
            },
            {
              "internalType": "uint64",
              "name": "lastBatchSequenced",
              "type": "uint64"
            },
            {
              "internalType": "uint64",
              "name": "lastVerifiedBatch",
              "type": "uint64"
            },
            {
              "internalType": "uint64",
              "name": "lastVerifiedBatchBeforeUpgrade",
              "type": "uint64"
            },
            {
              "internalType": "uint64",
              "name": "rollupTypeID",
              "type": "uint64"
            },
            {
              "internalType": "enum IPolygonRollupManager.VerifierType",
              "name": "rollupVerifierType",
              "type": "uint8"
            },
            {
              "internalType": "bytes32",
              "name": "lastPessimisticRoot",
              "type": "bytes32"
            },
            {
              "internalType": "bytes32",
              "name": "programVKey",
              "type": "bytes32"
            }
          ],
          "internalType": "struct PolygonRollupManager.RollupDataReturnV2",
          "name": "rollupData",
          "type": "tuple"
        }
      ],
      "stateMutability": "view",
      "type": "function"
    },
    {
      "inputs": [],
      "name": "rollupTypeCount",
      "outputs": [
        {
          "internalType": "uint32",
          "name": "",
          "type": "uint32"
        }
      ],
      "stateMutability": "view",
      "type": "function"
    },
    {
      "inputs": [
        {
          "internalType": "uint32",
          "name": "rollupTypeID",
          "type": "uint32"
        }
      ],
      "name": "rollupTypeMap",
      "outputs": [
        {
          "internalType": "address",
          "name": "consensusImplementation",
          "type": "address"
        },
        {
          "internalType": "address",
          "name": "verifier",
          "type": "address"
        },
        {
          "internalType": "uint64",
          "name": "forkID",
          "type": "uint64"
        },
        {
          "internalType": "enum IPolygonRollupManager.VerifierType",
          "name": "rollupVerifierType",
          "type": "uint8"
        },
        {
          "internalType": "bool",
          "name": "obsolete",
          "type": "bool"
        },
        {
          "internalType": "bytes32",
          "name": "genesis",
          "type": "bytes32"
        },
        {
          "internalType": "bytes32",
          "name": "programVKey",
          "type": "bytes32"
        }
      ],
      "stateMutability": "view",
      "type": "function"
    },
    {
      "inputs": [
        {
          "internalType": "uint256",
          "name": "newBatchFee",
          "type": "uint256"
        }
      ],
      "name": "setBatchFee",
      "outputs": [],
      "stateMutability": "nonpayable",
      "type": "function"
    },
    {
      "inputs": [
        {
          "internalType": "uint32",
          "name": "rollupID",
          "type": "uint32"
        },
        {
          "internalType": "bytes32",
          "name": "lastLocalExitRoot",
          "type": "bytes32"
        },
        {
          "internalType": "bytes32",
          "name": "lastPessimisticRoot",
          "type": "bytes32"
        }
      ],
      "name": "setRollupData",
      "outputs": [],
      "stateMutability": "nonpayable",
      "type": "function"
    },
    {
      "inputs": [],
      "name": "totalSequencedBatches",
      "outputs": [
        {
          "internalType": "uint64",
          "name": "",
          "type": "uint64"
        }
      ],
      "stateMutability": "view",
      "type": "function"
    },
    {
      "inputs": [],
      "name": "totalVerifiedBatches",
      "outputs": [
        {
          "internalType": "uint64",
          "name": "",
          "type": "uint64"
        }
      ],
      "stateMutability": "view",
      "type": "function"
    },
    {
      "inputs": [
        {
          "internalType": "contract ITransparentUpgradeableProxy",
          "name": "rollupContract",
          "type": "address"
        },
        {
          "internalType": "uint32",
          "name": "newRollupTypeID",
          "type": "uint32"
        },
        {
          "internalType": "bytes",
          "name": "upgradeData",
          "type": "bytes"
        }
      ],
      "name": "updateRollup",
      "outputs": [],
      "stateMutability": "nonpayable",
      "type": "function"
    },
    {
      "inputs": [
        {
          "internalType": "contract ITransparentUpgradeableProxy",
          "name": "rollupContract",
          "type": "address"
        },
        {
          "internalType": "uint32",
          "name": "newRollupTypeID",
          "type": "uint32"
        }
      ],
      "name": "updateRollupByRollupAdmin",
      "outputs": [],
      "stateMutability": "nonpayable",
      "type": "function"
    },
    {
      "inputs": [
        {
          "internalType": "uint32",
          "name": "rollupID",
          "type": "uint32"
        },
        {
          "internalType": "uint64",
          "name": "pendingStateNum",
          "type": "uint64"
        },
        {
          "internalType": "uint64",
          "name": "initNumBatch",
          "type": "uint64"
        },
        {
          "internalType": "uint64",
          "name": "finalNewBatch",
          "type": "uint64"
        },
        {
          "internalType": "bytes32",
          "name": "newLocalExitRoot",
          "type": "bytes32"
        },
        {
          "internalType": "bytes32",
          "name": "newStateRoot",
          "type": "bytes32"
        },
        {
          "internalType": "address",
          "name": "beneficiary",
          "type": "address"
        },
        {
          "internalType": "bytes32[24]",
          "name": "proof",
          "type": "bytes32[24]"
        }
      ],
      "name": "verifyBatchesTrustedAggregator",
      "outputs": [],
      "stateMutability": "nonpayable",
      "type": "function"
    },
    {
      "inputs": [
        {
          "internalType": "uint32",
          "name": "rollupID",
          "type": "uint32"
        },
        {
          "internalType": "uint32",
          "name": "l1InfoTreeLeafCount",
          "type": "uint32"
        },
        {
          "internalType": "bytes32",
          "name": "newLocalExitRoot",
          "type": "bytes32"
        },
        {
          "internalType": "bytes32",
          "name": "newPessimisticRoot",
          "type": "bytes32"
        },
        {
          "internalType": "bytes",
          "name": "proof",
          "type": "bytes"
        }
      ],
      "name": "verifyPessimisticTrustedAggregator",
      "outputs": [],
      "stateMutability": "nonpayable",
      "type": "function"
    }
  ],
  "bytecode": "0x60e060405234801562000010575f80fd5b50604051620059833803806200598383398101604081905262000033916200013c565b6001600160a01b0380841660805280831660c052811660a0528282826200005962000065565b5050505050506200018d565b5f54610100900460ff1615620000d15760405162461bcd60e51b815260206004820152602760248201527f496e697469616c697a61626c653a20636f6e747261637420697320696e697469604482015266616c697a696e6760c81b606482015260840160405180910390fd5b5f5460ff908116101562000122575f805460ff191660ff9081179091556040519081527f7f26b83ff96e1f2b6a682f133852f6798a09c465da95921460cefb38474024989060200160405180910390a15b565b6001600160a01b038116811462000139575f80fd5b50565b5f805f606084860312156200014f575f80fd5b83516200015c8162000124565b60208501519093506200016f8162000124565b6040850151909250620001828162000124565b809150509250925092565b60805160a05160c05161579a620001e95f395f818161097501528181612338015261342e01525f818161080601528181612dd101526134fa01525f81816108b801528181610ec3015281816119cc0152611b14015261579a5ff3fe608060405234801562000010575f80fd5b50600436106200035c575f3560e01c80638875f03c11620001cb578063c1acbc341162000107578063d890581211620000ab578063dfdb8c5e1162000083578063dfdb8c5e1462000958578063e46761c4146200096f578063f4e926751462000997578063f9c4c2ae14620009a8575f80fd5b8063d89058121462000908578063dbc169761462000933578063dde0ff77146200093d575f80fd5b8063d02103ca11620000df578063d02103ca14620008b2578063d5073f6f14620008da578063d547741f14620008f1575f80fd5b8063c1acbc341462000858578063c4c928c21462000873578063ceee281d146200088a575f80fd5b80639a908e73116200016f578063a2967d991162000147578063a2967d9914620007f6578063a3c573eb1462000800578063abcb51981462000841575f80fd5b80639a908e7314620007c05780639e36c56514620007d7578063a217fddf14620007ee575f80fd5b806391d1485411620001a357806391d14854146200076457806397bf07e8146200079f57806399f5634e14620007b6575f80fd5b80638875f03c146200071f5780638f698ec514620007365780638fd88cc2146200074d575f80fd5b8063477fa270116200029b5780637222020f116200023f5780637975fcfe11620002175780637975fcfe14620006c75780637fb6e76a14620006ed5780638129fc1c1462000715575f80fd5b80637222020f1462000673578063727885e9146200068a57806374d9c24414620006a1575f80fd5b806362d87e66116200027357806362d87e6614620005a857806365c0504d14620005bf578063680658a1146200063f575f80fd5b8063477fa270146200055257806355a71ee0146200055b57806360469169146200059e575f80fd5b80632072f6c511620003035780632f2ff15d11620002db5780632f2ff15d146200051057806330c27dde146200052757806336568abe146200053b575f80fd5b80632072f6c5146200041e578063248a9ca3146200042857806325280169146200045c575f80fd5b80631489ed1011620003375780631489ed1014620003c157806315064c9614620003d85780631796a1ae14620003f7575f80fd5b8063066ec01214620003605780630e36f582146200039157806311f6b28714620003aa575b5f80fd5b60845462000374906001600160401b031681565b6040516001600160401b0390911681526020015b60405180910390f35b620003a8620003a236600462003fb1565b620009ce565b005b62000374620003bb3660046200404c565b62000d8a565b620003a8620003d23660046200406f565b62000db9565b606f54620003e69060ff1681565b604051901515815260200162000388565b607e54620004089063ffffffff1681565b60405163ffffffff909116815260200162000388565b620003a862000fa9565b6200044d6200043936600462004109565b5f9081526034602052604090206001015490565b60405190815260200162000388565b620004dc6200046d36600462004121565b60408051606080820183525f808352602080840182905292840181905263ffffffff959095168552608182528285206001600160401b03948516865260030182529382902082519485018352805485526001015480841691850191909152600160401b90049091169082015290565b60408051825181526020808401516001600160401b0390811691830191909152928201519092169082015260600162000388565b620003a86200052136600462004157565b62001085565b60875462000374906001600160401b031681565b620003a86200054c36600462004157565b620010b2565b6086546200044d565b6200044d6200056c36600462004121565b63ffffffff82165f9081526081602090815260408083206001600160401b038516845260020190915290205492915050565b6200044d620010ec565b620003e6620005b936600462004109565b62001103565b6200062a620005d03660046200404c565b607f6020525f908152604090208054600182015460028301546003909301546001600160a01b0392831693928216926001600160401b03600160a01b8404169260ff600160e01b8204811693600160e81b90920416919087565b604051620003889796959493929190620041bd565b620003a86200065036600462004211565b63ffffffff9092165f908152608160205260409020600581019190915560080155565b620003a8620006843660046200404c565b6200110f565b620003a86200069b36600462004306565b62001205565b620006b8620006b23660046200404c565b62001693565b604051620003889190620043cc565b620006de620006d8366004620044d8565b620017c5565b6040516200038891906200458b565b62000408620006fe3660046200459f565b60836020525f908152604090205463ffffffff1681565b620003a8620017f7565b620003a862000730366004620045bb565b6200192b565b620003a86200074736600462004661565b62001be1565b620003a86200075e3660046200470c565b62001c65565b620003e66200077536600462004157565b5f9182526034602090815260408084206001600160a01b0393909316845291905290205460ff1690565b620003a8620007b03660046200473a565b62001fff565b6200044d62002317565b62000374620007d1366004620047bc565b620023f8565b620006de620007e8366004620047e7565b620025f9565b6200044d5f81565b6200044d6200262b565b620008287f000000000000000000000000000000000000000000000000000000000000000081565b6040516001600160a01b03909116815260200162000388565b620003a86200085236600462004820565b620029f3565b6084546200037490600160801b90046001600160401b031681565b620003a862000884366004620048bc565b62002c6e565b620004086200089b36600462004933565b60826020525f908152604090205463ffffffff1681565b620008287f000000000000000000000000000000000000000000000000000000000000000081565b620003a8620008eb36600462004109565b62002cad565b620003a86200090236600462004157565b62002d4f565b620006de6040518060400160405280600b81526020016a70657373696d697374696360a81b81525081565b620003a862002d77565b6084546200037490600160401b90046001600160401b031681565b620003a86200096936600462004951565b62002e43565b620008287f000000000000000000000000000000000000000000000000000000000000000081565b608054620004089063ffffffff1681565b620009bf620009b93660046200404c565b62002f93565b60405162000388919062004980565b5f54600290610100900460ff16158015620009ef57505f5460ff8083169116105b62000a585760405162461bcd60e51b815260206004820152602e60248201527f496e697469616c697a61626c653a20636f6e747261637420697320616c72656160448201526d191e481a5b9a5d1a585b1a5e995960921b60648201526084015b60405180910390fd5b5f805461ffff191660ff83161761010017905567016345785d8a000060865562000a81620030f3565b62000aad7f084e94f375e9d647f87f5b2ceffba1e062c70f6009fdbcf80291e803b5c9edd4886200315f565b62000ab95f846200315f565b62000ae57fac75d24dbb35ea80e25fab167da4dea46c1915260426570db84f184891f5f590846200315f565b62000b117f3dfe277d2a2c04b75fb2eb3743fa00005ae3678a20c299e65fdf4df76517f68e846200315f565b62000b3d7f66156603fe29d13f97c6f3e3dff4ef71919f9aa61c555be0182d954e94221aac846200315f565b62000b697fab66e11c4f712cd06ab11bf9339b48bef39e12d4a22eeef71d2860a0c90482bd856200315f565b62000b957fa0fab074aba36a6fa69f1a83ee86e5abfb8433966eb57efb13dc2fc2f24ddd08856200315f565b62000bc17f62ba6ba2ffed8cfe316b583325ea41ac6e7ba9e5864d2bc6fabba7ac26d2f0f4856200315f565b62000bed7fa5c5790f581d443ed43873ab47cfb8c5d66a6db268e58b5971bb33fc66e07db1856200315f565b62000c397f084e94f375e9d647f87f5b2ceffba1e062c70f6009fdbcf80291e803b5c9edd47f73cb0569fdbea2544dae03fdb2fe10eda92a72a2e8cd2bd496e85b762505a3f06200316b565b62000c657f73cb0569fdbea2544dae03fdb2fe10eda92a72a2e8cd2bd496e85b762505a3f0856200315f565b62000c917f8cf807f6970720f8e2c208c7c5037595982c7bd9ed93c380d09df743d0dcc3fb856200315f565b62000cdd7f141f8f32ce6198eee741f695cec728bfd32d289f1acf73621fb303581000545e7f9b6f082d8d3644ae2f24a3c32e356d6f2d9b2844d9b26164fbc82663ff2859516200316b565b62000d097f141f8f32ce6198eee741f695cec728bfd32d289f1acf73621fb303581000545e836200315f565b62000d357f9b6f082d8d3644ae2f24a3c32e356d6f2d9b2844d9b26164fbc82663ff285951836200315f565b62000d415f336200315f565b5f805461ff001916905560405160ff821681527f7f26b83ff96e1f2b6a682f133852f6798a09c465da95921460cefb38474024989060200160405180910390a150505050505050565b63ffffffff81165f90815260816020526040812060060154600160401b90046001600160401b03165b92915050565b7f084e94f375e9d647f87f5b2ceffba1e062c70f6009fdbcf80291e803b5c9edd462000de581620031b5565b6001600160401b0388161562000e0e5760405163306dfc5760e11b815260040160405180910390fd5b63ffffffff89165f908152608160205260408120906007820154600160801b900460ff16600181111562000e465762000e4662004188565b1462000e65576040516390db0d0760e01b815260040160405180910390fd5b62000e7681898989898989620031c1565b6006810180546fffffffffffffffff00000000000000001916600160401b6001600160401b038a16908102919091179091555f9081526002820160205260409020859055600581018690557f00000000000000000000000000000000000000000000000000000000000000006001600160a01b03166333d6247d62000efa6200262b565b6040518263ffffffff1660e01b815260040162000f1991815260200190565b5f604051808303815f87803b15801562000f31575f80fd5b505af115801562000f44573d5f803e3d5ffd5b5050604080516001600160401b038b1681526020810189905290810189905233925063ffffffff8d1691507fd1ec3a1216f08b6eff72e169ceb548b782db18a6614852618d86bb19f3f9b0d3906060015b60405180910390a350505050505050505050565b335f9081527f8875b94af5657a2903def9906d67a3f42d8a836d24b5602c00f00fc855339fcd602052604090205460ff166200107957608454600160801b90046001600160401b031615806200102a575060845442906200101f9062093a8090600160801b90046001600160401b031662004aa9565b6001600160401b0316115b806200105a575060875442906200104f9062093a80906001600160401b031662004aa9565b6001600160401b0316115b15620010795760405163692baaad60e11b815260040160405180910390fd5b62001083620034f8565b565b5f82815260346020526040902060010154620010a181620031b5565b620010ad838362003572565b505050565b6001600160a01b0381163314620010dc57604051630b4ad1cd60e31b815260040160405180910390fd5b620010e88282620035f6565b5050565b5f6086546064620010fe919062004ad3565b905090565b5f62000db38262003678565b7fab66e11c4f712cd06ab11bf9339b48bef39e12d4a22eeef71d2860a0c90482bd6200113b81620031b5565b63ffffffff821615806200115a5750607e5463ffffffff908116908316115b156200117957604051637512e5cb60e01b815260040160405180910390fd5b63ffffffff82165f908152607f602052604090206001810154600160e81b900460ff1615620011bb57604051633b8d3d9960e01b815260040160405180910390fd5b60018101805460ff60e81b1916600160e81b17905560405163ffffffff8416907f4710d2ee567ef1ed6eb2f651dde4589524bcf7cebc62147a99b281cc836e7e44905f90a2505050565b7fa0fab074aba36a6fa69f1a83ee86e5abfb8433966eb57efb13dc2fc2f24ddd086200123181620031b5565b63ffffffff88161580620012505750607e5463ffffffff908116908916115b156200126f57604051637512e5cb60e01b815260040160405180910390fd5b63ffffffff88165f908152607f602052604090206001810154600160e81b900460ff1615620012b157604051633b8d3d9960e01b815260040160405180910390fd5b63ffffffff6001600160401b0389161115620012e057604051634c753f5760e01b815260040160405180910390fd5b6001600160401b0388165f9081526083602052604090205463ffffffff16156200131d576040516337c8fe0960e11b815260040160405180910390fd5b608080545f91908290620013379063ffffffff1662004aed565b825463ffffffff8281166101009490940a93840293021916919091179091558254604080515f80825260208201928390529394506001600160a01b03909216913091620013849062003f77565b620013929392919062004b12565b604051809103905ff080158015620013ac573d5f803e3d5ffd5b5090508160835f8c6001600160401b03166001600160401b031681526020019081526020015f205f6101000a81548163ffffffff021916908363ffffffff1602179055508160825f836001600160a01b03166001600160a01b031681526020019081526020015f205f6101000a81548163ffffffff021916908363ffffffff1602179055505f60815f8463ffffffff1663ffffffff1681526020019081526020015f20905081815f015f6101000a8154816001600160a01b0302191690836001600160a01b031602179055508360010160149054906101000a90046001600160401b03168160010160146101000a8154816001600160401b0302191690836001600160401b03160217905550836001015f9054906101000a90046001600160a01b0316816001015f6101000a8154816001600160a01b0302191690836001600160a01b031602179055508a815f0160146101000a8154816001600160401b0302191690836001600160401b031602179055508360020154816002015f806001600160401b031681526020019081526020015f20819055508b63ffffffff168160070160086101000a8154816001600160401b0302191690836001600160401b0316021790555083600101601c9054906101000a900460ff168160070160106101000a81548160ff02191690836001811115620015ac57620015ac62004188565b0217905550600384015460098201556040805163ffffffff8e811682526001600160a01b0385811660208401526001600160401b038f16838501528b1660608301529151918516917f194c983456df6701c6a50830b90fe80e72b823411d0d524970c9590dc277a6419181900360800190a2604051633892b81160e11b81526001600160a01b0383169063712570229062001656908d908d9088908e908e908e9060040162004b3f565b5f604051808303815f87803b1580156200166e575f80fd5b505af115801562001681573d5f803e3d5ffd5b50505050505050505050505050505050565b60408051610180810182525f8082526020808301828152838501838152606085018481526080860185815260a0870186815260c0880187815260e089018881526101008a018981526101208b018a81526101408c018b90526101608c018b905263ffffffff8e168b5260819099529a90982080546001600160a01b038082168c52600160a01b918290046001600160401b0390811690995260018084015491821690985204871690945260058401549092526006830154808616909152600160401b9081900485169091526007820154808516909652850490921690955292939091600160801b900460ff169081111562001792576200179262004188565b90816001811115620017a857620017a862004188565b905250600881015461014083015260090154610160820152919050565b63ffffffff86165f908152608160205260409020606090620017ec90878787878762003701565b979650505050505050565b5f54600390610100900460ff161580156200181857505f5460ff8083169116105b6200187d5760405162461bcd60e51b815260206004820152602e60248201527f496e697469616c697a61626c653a20636f6e747261637420697320616c72656160448201526d191e481a5b9a5d1a585b1a5e995960921b606482015260840162000a4f565b5f805461ffff191660ff831617610100179055604080518082018252600b81526a70657373696d697374696360a81b602082015290517f50cadc0c001f05dd4b81db1e92b98d77e718fd2f103fb7b77293e867d329a4c291620018e0916200458b565b60405180910390a15f805461ff001916905560405160ff821681527f7f26b83ff96e1f2b6a682f133852f6798a09c465da95921460cefb38474024989060200160405180910390a150565b7f084e94f375e9d647f87f5b2ceffba1e062c70f6009fdbcf80291e803b5c9edd46200195781620031b5565b63ffffffff87165f90815260816020526040902060016007820154600160801b900460ff16600181111562001990576200199062004188565b14620019af57604051633a64d97360e01b815260040160405180910390fd5b60405163ef4eeb3560e01b815263ffffffff881660048201525f907f00000000000000000000000000000000000000000000000000000000000000006001600160a01b03169063ef4eeb3590602401602060405180830381865afa15801562001a1a573d5f803e3d5ffd5b505050506040513d601f19601f8201168201806040525081019062001a40919062004ba1565b90508062001a615760405163a60721e160e01b815260040160405180910390fd5b5f62001a718a84848b8b62003858565b6001840154600985015460405163020a49e360e51b81529293506001600160a01b03909116916341493c609162001ab19185908b908b9060040162004bb9565b5f6040518083038186803b15801562001ac8575f80fd5b505afa15801562001adb573d5f803e3d5ffd5b50506084805467ffffffffffffffff60801b1916600160801b426001600160401b031602179055505060058301889055600883018790557f00000000000000000000000000000000000000000000000000000000000000006001600160a01b03166333d6247d62001b4b6200262b565b6040518263ffffffff1660e01b815260040162001b6a91815260200190565b5f604051808303815f87803b15801562001b82575f80fd5b505af115801562001b95573d5f803e3d5ffd5b5050604080515f80825260208201529081018b905233925063ffffffff8d1691507fd1ec3a1216f08b6eff72e169ceb548b782db18a6614852618d86bb19f3f9b0d39060600162000f95565b80516080805463ffffffff191663ffffffff9092169190911790555f5b8151811015620010e85781818151811062001c1d5762001c1d62004c06565b602002602001015160815f83600162001c37919062004c1a565b63ffffffff16815260208101919091526040015f20600501558062001c5c8162004c30565b91505062001bfe565b335f9081527ff14f5a8ad59d90593602e905b358229bff5ceea677d5bf0f5a1701793550a9a6602052604090205460ff1615801562001d185750336001600160a01b0316826001600160a01b031663f851a4406040518163ffffffff1660e01b8152600401602060405180830381865afa15801562001ce6573d5f803e3d5ffd5b505050506040513d601f19601f8201168201806040525081019062001d0c919062004c4b565b6001600160a01b031614155b1562001d3757604051630d03687f60e11b815260040160405180910390fd5b6001600160a01b0382165f9081526082602052604081205463ffffffff169081900362001d77576040516374a086a360e01b815260040160405180910390fd5b63ffffffff81165f908152608160205260408120906007820154600160801b900460ff16600181111562001daf5762001daf62004188565b1462001dce576040516390db0d0760e01b815260040160405180910390fd5b60068101546001600160401b039081169084168111158062001e07575060068201546001600160401b03600160401b9091048116908516105b1562001e265760405163cb23ebdf60e01b815260040160405180910390fd5b805b846001600160401b0316816001600160401b03161462001eca576001600160401b038082165f908152600385016020526040902060010154600160401b9004811690861681101562001e8d57604051639753965f60e01b815260040160405180910390fd5b6001600160401b039091165f908152600384016020526040812090815560010180546fffffffffffffffffffffffffffffffff1916905562001e28565b60068301805467ffffffffffffffff19166001600160401b03871617905562001ef4858362004c69565b608480545f9062001f109084906001600160401b031662004c69565b82546101009290920a6001600160401b0381810219909316918316021790915586165f8181526003860160205260409081902054905163334d6f6760e11b8152600481019290925260248201526001600160a01b038816915063669adece906044015f604051808303815f87803b15801562001f8a575f80fd5b505af115801562001f9d573d5f803e3d5ffd5b505050506001600160401b0385165f81815260038501602090815260409182902054915191825263ffffffff8716917f80a6d395a55aed8126079cb8247f0a6848b1440ca2cdca3b4386f250c3529402910160405180910390a3505050505050565b7f3dfe277d2a2c04b75fb2eb3743fa00005ae3678a20c299e65fdf4df76517f68e6200202b81620031b5565b6001600160401b0385165f9081526083602052604090205463ffffffff161562002068576040516337c8fe0960e11b815260040160405180910390fd5b63ffffffff6001600160401b03861611156200209757604051634c753f5760e01b815260040160405180910390fd5b6001600160a01b0388165f9081526082602052604090205463ffffffff1615620020d457604051630d409b9360e41b815260040160405180910390fd5b608080545f91908290620020ee9063ffffffff1662004aed565b91906101000a81548163ffffffff021916908363ffffffff160217905590508060835f886001600160401b03166001600160401b031681526020019081526020015f205f6101000a81548163ffffffff021916908363ffffffff1602179055508060825f8b6001600160a01b03166001600160a01b031681526020019081526020015f205f6101000a81548163ffffffff021916908363ffffffff1602179055505f60815f8363ffffffff1663ffffffff1681526020019081526020015f20905089815f015f6101000a8154816001600160a01b0302191690836001600160a01b03160217905550878160010160146101000a8154816001600160401b0302191690836001600160401b0316021790555088816001015f6101000a8154816001600160a01b0302191690836001600160a01b0316021790555086815f0160146101000a8154816001600160401b0302191690836001600160401b03160217905550848160070160106101000a81548160ff0219169083600181111562002278576200227862004188565b0217905550600185600181111562002294576200229462004188565b03620022ae576009810184905560058101869055620022c1565b5f80805260028201602052604090208690555b8163ffffffff167fd490df184152edba8455dac3228134939c71f8cb4c8f310c3145dec9037147ac898c8a895f8a604051620023039695949392919062004c8c565b60405180910390a250505050505050505050565b6040516370a0823160e01b81523060048201525f9081906001600160a01b037f000000000000000000000000000000000000000000000000000000000000000016906370a0823190602401602060405180830381865afa1580156200237e573d5f803e3d5ffd5b505050506040513d601f19601f82011682018060405250810190620023a4919062004ba1565b6084549091505f90620023ca906001600160401b03600160401b82048116911662004c69565b6001600160401b03169050805f03620023e5575f9250505090565b620023f1818362004ced565b9250505090565b606f545f9060ff16156200241f57604051630bc011ff60e21b815260040160405180910390fd5b335f9081526082602052604081205463ffffffff169081900362002456576040516371653c1560e01b815260040160405180910390fd5b836001600160401b03165f036200248057604051632590ccf960e01b815260040160405180910390fd5b63ffffffff81165f908152608160205260408120906007820154600160801b900460ff166001811115620024b857620024b862004188565b14620024d7576040516390db0d0760e01b815260040160405180910390fd5b608480548691905f90620024f69084906001600160401b031662004aa9565b82546101009290920a6001600160401b0381810219909316918316021790915560068301541690505f6200252b878362004aa9565b6006840180546001600160401b0383811667ffffffffffffffff199092168217909255604080516060810182528a815242841660208083019182528886168385019081525f86815260038c018352859020935184559151600193909301805492518716600160401b026fffffffffffffffffffffffffffffffff199093169390961692909217179093555190815291925063ffffffff8616917f1d9f30260051d51d70339da239ea7b080021adcaabfa71c9b0ea339a20cf9a25910160405180910390a29695505050505050565b63ffffffff84165f9081526081602052604090206060906200262090869086868662003858565b90505b949350505050565b6080545f9063ffffffff168082036200264557505f919050565b5f816001600160401b0381111562002661576200266162004244565b6040519080825280602002602001820160405280156200268b578160200160208202803683370190505b5090505f5b82811015620026fb5760815f620026a983600162004c1a565b63ffffffff1663ffffffff1681526020019081526020015f2060050154828281518110620026db57620026db62004c06565b602090810291909101015280620026f28162004c30565b91505062002690565b505f60205b8360011462002953575f6200271760028662004d03565b6200272460028762004ced565b62002730919062004c1a565b90505f816001600160401b038111156200274e576200274e62004244565b60405190808252806020026020018201604052801562002778578160200160208202803683370190505b5090505f5b82811015620028ff576200279360018462004d19565b81148015620027ae5750620027aa60028862004d03565b6001145b15620028365785620027c282600262004ad3565b81518110620027d557620027d562004c06565b602002602001015185604051602001620027f9929190918252602082015260400190565b6040516020818303038152906040528051906020012082828151811062002824576200282462004c06565b602002602001018181525050620028ea565b856200284482600262004ad3565b8151811062002857576200285762004c06565b6020026020010151868260026200286f919062004ad3565b6200287c90600162004c1a565b815181106200288f576200288f62004c06565b6020026020010151604051602001620028b2929190918252602082015260400190565b60405160208183030381529060405280519060200120828281518110620028dd57620028dd62004c06565b6020026020010181815250505b80620028f68162004c30565b9150506200277d565b50809450819550838460405160200162002923929190918252602082015260400190565b6040516020818303038152906040528051906020012093508280620029489062004d2f565b935050505062002700565b5f835f8151811062002969576200296962004c06565b602002602001015190505f5b82811015620029e957604080516020810184905290810185905260600160408051601f19818403018152828252805160209182012090830187905290820186905292506060016040516020818303038152906040528051906020012093508080620029e09062004c30565b91505062002975565b5095945050505050565b7fac75d24dbb35ea80e25fab167da4dea46c1915260426570db84f184891f5f59062002a1f81620031b5565b607e80545f9190829062002a399063ffffffff1662004aed565b91906101000a81548163ffffffff021916908363ffffffff1602179055905060018081111562002a6d5762002a6d62004188565b86600181111562002a825762002a8262004188565b0362002aae57841562002aa8576040516363d722e760e01b815260040160405180910390fd5b62002ace565b821562002ace576040516363d722e760e01b815260040160405180910390fd5b6040518060e001604052808a6001600160a01b03168152602001896001600160a01b03168152602001886001600160401b0316815260200187600181111562002b1b5762002b1b62004188565b81525f602080830182905260408084018a9052606093840188905263ffffffff86168352607f825291829020845181546001600160a01b0391821673ffffffffffffffffffffffffffffffffffffffff199091161782559185015160018281018054958801516001600160401b0316600160a01b026001600160e01b0319909616929094169190911793909317808355938501519093909260ff60e01b1990911690600160e01b90849081111562002bd75762002bd762004188565b02179055506080820151600182018054911515600160e81b0260ff60e81b1990921691909117905560a0820151600282015560c09091015160039091015560405163ffffffff8216907f9eaf2ecbddb14889c9e141a63175c55ac25e0cd7cdea312cdfbd0397976b383a9062002c5b908c908c908c908c908c908c908c9062004d47565b60405180910390a2505050505050505050565b7f66156603fe29d13f97c6f3e3dff4ef71919f9aa61c555be0182d954e94221aac62002c9a81620031b5565b62002ca78484846200393d565b50505050565b7f8cf807f6970720f8e2c208c7c5037595982c7bd9ed93c380d09df743d0dcc3fb62002cd981620031b5565b683635c9adc5dea0000082118062002cf45750633b9aca0082105b1562002d1357604051638586952560e01b815260040160405180910390fd5b60868290556040518281527ffb383653f53ee079978d0c9aff7aeff04a10166ce244cca9c9f9d8d96bed45b29060200160405180910390a15050565b5f8281526034602052604090206001015462002d6b81620031b5565b620010ad8383620035f6565b7f62ba6ba2ffed8cfe316b583325ea41ac6e7ba9e5864d2bc6fabba7ac26d2f0f462002da381620031b5565b6087805467ffffffffffffffff1916426001600160401b031617905560408051636de0b4bb60e11b815290517f00000000000000000000000000000000000000000000000000000000000000006001600160a01b03169163dbc16976916004808301925f92919082900301818387803b15801562002e1f575f80fd5b505af115801562002e32573d5f803e3d5ffd5b5050505062002e4062003c23565b50565b336001600160a01b0316826001600160a01b031663f851a4406040518163ffffffff1660e01b8152600401602060405180830381865afa15801562002e8a573d5f803e3d5ffd5b505050506040513d601f19601f8201168201806040525081019062002eb0919062004c4b565b6001600160a01b03161462002ed85760405163696072e960e01b815260040160405180910390fd5b6001600160a01b0382165f9081526082602090815260408083205463ffffffff1683526081909152902060068101546001600160401b03808216600160401b909204161462002f3a5760405163664316a560e11b815260040160405180910390fd5b600781015463ffffffff8316600160401b9091046001600160401b03161062002f7657604051633e37e23360e01b815260040160405180910390fd5b604080515f815260208101909152620010ad90849084906200393d565b62002ff860408051610180810182525f80825260208201819052918101829052606081018290526080810182905260a0810182905260c0810182905260e081018290526101008101829052610120810182905261014081018290529061016082015290565b63ffffffff82165f9081526081602090815260409182902080546001600160a01b038082168652600160a01b918290046001600160401b039081169487019490945260018084015491821695870195909552048216606085015260058101546080850152600681015480831660a0860152600160401b808204841660c0870152600160801b808304851660e0880152600160c01b9092048416610100870152600783015480851661012088015290810490931661014086015290926101608501929190910460ff1690811115620030d357620030d362004188565b90816001811115620030e957620030e962004188565b8152505050919050565b5f54610100900460ff16620010835760405162461bcd60e51b815260206004820152602b60248201527f496e697469616c697a61626c653a20636f6e7472616374206973206e6f74206960448201526a6e697469616c697a696e6760a81b606482015260840162000a4f565b620010e8828262003572565b5f82815260346020526040808220600101805490849055905190918391839186917fbd79b86ffe0ab8e8776151514217cd7cacd52c909f66475c3af44e129f0b00ff9190a4505050565b62002e40813362003c7b565b5f80620031e089600601546001600160401b03600160401b9091041690565b60078a01549091506001600160401b039081169089161015620032165760405163ead1340b60e01b815260040160405180910390fd5b6001600160401b0388165f90815260028a01602052604090205491508162003251576040516324cbdcc360e11b815260040160405180910390fd5b806001600160401b0316886001600160401b031611156200328557604051630f2b74f160e11b815260040160405180910390fd5b806001600160401b0316876001600160401b031611620032b85760405163b9b18f5760e01b815260040160405180910390fd5b5f620032c98a8a8a8a878b62003701565b90505f7f30644e72e131a029b85045b68181585d2833e84879b9709143e1f593f0000001600283604051620032ff919062004daa565b602060405180830381855afa1580156200331b573d5f803e3d5ffd5b5050506040513d601f19601f8201168201806040525081019062003340919062004ba1565b6200334c919062004d03565b60018c0154604080516020810182528381529051634890ed4560e11b81529293506001600160a01b0390911691639121da8a91620033909189919060040162004dc7565b602060405180830381865afa158015620033ac573d5f803e3d5ffd5b505050506040513d601f19601f82011682018060405250810190620033d2919062004e03565b620033f0576040516309bde33960e01b815260040160405180910390fd5b5f620033fd848b62004c69565b90506200345687826001600160401b03166200341862002317565b62003424919062004ad3565b6001600160a01b037f000000000000000000000000000000000000000000000000000000000000000016919062003cbe565b80608460088282829054906101000a90046001600160401b03166200347c919062004aa9565b82546101009290920a6001600160401b038181021990931691831602179091556084805467ffffffffffffffff60801b1916600160801b428416021790558d546040516332c2d15360e01b8152918d166004830152602482018b90523360448301526001600160a01b031691506332c2d1539060640162001656565b7f00000000000000000000000000000000000000000000000000000000000000006001600160a01b0316632072f6c56040518163ffffffff1660e01b81526004015f604051808303815f87803b15801562003551575f80fd5b505af115801562003564573d5f803e3d5ffd5b505050506200108362003d27565b5f8281526034602090815260408083206001600160a01b038516845290915290205460ff16620010e8575f8281526034602090815260408083206001600160a01b0385168085529252808320805460ff1916600117905551339285917f2f8788117e7eff1d82e926ec794901d17c78024a50270940304540a733656f0d9190a45050565b5f8281526034602090815260408083206001600160a01b038516845290915290205460ff1615620010e8575f8281526034602090815260408083206001600160a01b0385168085529252808320805460ff1916905551339285917ff6391f5c32d9c69d2a47ea670b442974b53935d1edc7fd64eb21e047a839171b9190a45050565b5f67ffffffff000000016001600160401b038316108015620036ae575067ffffffff00000001604083901c6001600160401b0316105b8015620036cf575067ffffffff00000001608083901c6001600160401b0316105b8015620036e7575067ffffffff0000000160c083901c105b15620036f557506001919050565b505f919050565b919050565b6001600160401b038086165f818152600389016020526040808220549388168252902054606092911580159062003736575081155b15620037555760405163340c614f60e11b815260040160405180910390fd5b8062003774576040516366385b5160e01b815260040160405180910390fd5b6200377f8462003678565b6200379d576040516305dae44f60e21b815260040160405180910390fd5b885460018a01546040516bffffffffffffffffffffffff193360601b16602082015260348101889052605481018590527fffffffffffffffff00000000000000000000000000000000000000000000000060c08c811b82166074840152600160a01b94859004811b8216607c84015293909204831b82166084820152608c810187905260ac810184905260cc81018990529189901b1660ec82015260f401604051602081830303815290604052925050509695505050505050565b60605f855f015f9054906101000a90046001600160a01b03166001600160a01b031663ad1edf346040518163ffffffff1660e01b8152600401602060405180830381865afa158015620038ad573d5f803e3d5ffd5b505050506040513d601f19601f82011682018060405250810190620038d3919062004ba1565b60058701546008880154604080516020810193909352820152606081018790526001600160e01b031960e08a901b1660808201526084810182905260a4810186905260c4810185905290915060e40160405160208183030381529060405291505095945050505050565b63ffffffff821615806200395c5750607e5463ffffffff908116908316115b156200397b57604051637512e5cb60e01b815260040160405180910390fd5b6001600160a01b0383165f9081526082602052604081205463ffffffff1690819003620039bb576040516374a086a360e01b815260040160405180910390fd5b63ffffffff8181165f908152608160205260409020600781015490918516600160401b9091046001600160401b03160362003a0957604051634f61d51960e01b815260040160405180910390fd5b63ffffffff84165f908152607f602052604090206001810154600160e81b900460ff161562003a4b57604051633b8d3d9960e01b815260040160405180910390fd5b600181810154600160e01b900460ff169081111562003a6e5762003a6e62004188565b6007830154600160801b900460ff16600181111562003a915762003a9162004188565b1462003ab057604051635aa0d5f160e11b815260040160405180910390fd5b60018082018054918401805473ffffffffffffffffffffffffffffffffffffffff1981166001600160a01b03909416938417825591546001600160401b03600160a01b9182900416026001600160e01b031990921690921717905560038101546009830155600782018054600160401b63ffffffff8816026fffffffffffffffff0000000000000000199091161790555f62003b4c8462000d8a565b60078401805467ffffffffffffffff19166001600160401b038316179055825460405163278f794360e11b81529192506001600160a01b0389811692634f1ef2869262003ba0921690899060040162004e24565b5f604051808303815f87803b15801562003bb8575f80fd5b505af115801562003bcb573d5f803e3d5ffd5b50506040805163ffffffff8a811682526001600160401b0386166020830152881693507ff585e04c05d396901170247783d3e5f0ee9c1df23072985b50af089f5e48b19d92500160405180910390a250505050505050565b606f5460ff1662003c4757604051635386698160e01b815260040160405180910390fd5b606f805460ff191690556040517f1e5e34eea33501aecf2ebec9fe0e884a40804275ea7fe10b2ba084c8374308b3905f90a1565b5f8281526034602090815260408083206001600160a01b038516845290915290205460ff16620010e857604051637615be1f60e11b815260040160405180910390fd5b604080516001600160a01b038416602482015260448082018490528251808303909101815260649091019091526020810180517bffffffffffffffffffffffffffffffffffffffffffffffffffffffff1663a9059cbb60e01b179052620010ad90849062003d83565b606f5460ff161562003d4c57604051630bc011ff60e21b815260040160405180910390fd5b606f805460ff191660011790556040517f2261efe5aef6fedc1fd1550b25facc9181745623049c7901287030b9ad1a5497905f90a1565b5f62003dd9826040518060400160405280602081526020017f5361666545524332303a206c6f772d6c6576656c2063616c6c206661696c6564815250856001600160a01b031662003e5b9092919063ffffffff16565b805190915015620010ad578080602001905181019062003dfa919062004e03565b620010ad5760405162461bcd60e51b815260206004820152602a60248201527f5361666545524332303a204552433230206f7065726174696f6e20646964206e6044820152691bdd081cdd58d8d9595960b21b606482015260840162000a4f565b60606200262384845f85855f80866001600160a01b0316858760405162003e83919062004daa565b5f6040518083038185875af1925050503d805f811462003ebf576040519150601f19603f3d011682016040523d82523d5f602084013e62003ec4565b606091505b5091509150620017ec878383876060831562003f445782515f0362003f3c576001600160a01b0385163b62003f3c5760405162461bcd60e51b815260206004820152601d60248201527f416464726573733a2063616c6c20746f206e6f6e2d636f6e7472616374000000604482015260640162000a4f565b508162002623565b62002623838381511562003f5b5781518083602001fd5b8060405162461bcd60e51b815260040162000a4f91906200458b565b61091d8062004e4883390190565b6001600160a01b038116811462002e40575f80fd5b80356001600160401b0381168114620036fc575f80fd5b5f805f805f8060c0878903121562003fc7575f80fd5b863562003fd48162003f85565b955062003fe46020880162003f9a565b945062003ff46040880162003f9a565b93506060870135620040068162003f85565b92506080870135620040188162003f85565b915060a08701356200402a8162003f85565b809150509295509295509295565b803563ffffffff81168114620036fc575f80fd5b5f602082840312156200405d575f80fd5b620040688262004038565b9392505050565b5f805f805f805f806103e0808a8c03121562004089575f80fd5b620040948a62004038565b9850620040a460208b0162003f9a565b9750620040b460408b0162003f9a565b9650620040c460608b0162003f9a565b955060808a0135945060a08a0135935060c08a0135620040e48162003f85565b92508981018b1015620040f5575f80fd5b5060e0890190509295985092959890939650565b5f602082840312156200411a575f80fd5b5035919050565b5f806040838503121562004133575f80fd5b6200413e8362004038565b91506200414e6020840162003f9a565b90509250929050565b5f806040838503121562004169575f80fd5b8235915060208301356200417d8162003f85565b809150509250929050565b634e487b7160e01b5f52602160045260245ffd5b60028110620041b957634e487b7160e01b5f52602160045260245ffd5b9052565b6001600160a01b038881168252871660208201526001600160401b038616604082015260e08101620041f360608301876200419c565b931515608082015260a081019290925260c090910152949350505050565b5f805f6060848603121562004224575f80fd5b6200422f8462004038565b95602085013595506040909401359392505050565b634e487b7160e01b5f52604160045260245ffd5b604051601f8201601f191681016001600160401b038111828210171562004283576200428362004244565b604052919050565b5f6001600160401b03831115620042a657620042a662004244565b620042bb601f8401601f191660200162004258565b9050828152838383011115620042cf575f80fd5b828260208301375f602084830101529392505050565b5f82601f830112620042f5575f80fd5b62004068838335602085016200428b565b5f805f805f805f60e0888a0312156200431d575f80fd5b620043288862004038565b9650620043386020890162003f9a565b955060408801356200434a8162003f85565b945060608801356200435c8162003f85565b935060808801356200436e8162003f85565b925060a08801356001600160401b03808211156200438a575f80fd5b620043988b838c01620042e5565b935060c08a0135915080821115620043ae575f80fd5b50620043bd8a828b01620042e5565b91505092959891949750929550565b81516001600160a01b0316815261018081016020830151620043f960208401826001600160401b03169052565b5060408301516200441560408401826001600160a01b03169052565b5060608301516200443160608401826001600160401b03169052565b506080830151608083015260a08301516200445760a08401826001600160401b03169052565b5060c08301516200447360c08401826001600160401b03169052565b5060e08301516200448f60e08401826001600160401b03169052565b50610100838101516001600160401b03169083015261012080840151620044b9828501826200419c565b5050610140838101519083015261016092830151929091019190915290565b5f805f805f8060c08789031215620044ee575f80fd5b620044f98762004038565b9550620045096020880162003f9a565b9450620045196040880162003f9a565b9350606087013592506080870135915060a087013590509295509295509295565b5f5b83811015620045565781810151838201526020016200453c565b50505f910152565b5f8151808452620045778160208601602086016200453a565b601f01601f19169290920160200192915050565b602081525f6200406860208301846200455e565b5f60208284031215620045b0575f80fd5b620040688262003f9a565b5f805f805f8060a08789031215620045d1575f80fd5b620045dc8762004038565b9550620045ec6020880162004038565b9450604087013593506060870135925060808701356001600160401b038082111562004616575f80fd5b818901915089601f8301126200462a575f80fd5b81358181111562004639575f80fd5b8a60208285010111156200464b575f80fd5b6020830194508093505050509295509295509295565b5f602080838503121562004673575f80fd5b82356001600160401b03808211156200468a575f80fd5b818501915085601f8301126200469e575f80fd5b813581811115620046b357620046b362004244565b8060051b9150620046c684830162004258565b8181529183018401918481019088841115620046e0575f80fd5b938501935b838510156200470057843582529385019390850190620046e5565b98975050505050505050565b5f80604083850312156200471e575f80fd5b82356200413e8162003f85565b803560028110620036fc575f80fd5b5f805f805f805f60e0888a03121562004751575f80fd5b87356200475e8162003f85565b96506020880135620047708162003f85565b9550620047806040890162003f9a565b9450620047906060890162003f9a565b935060808801359250620047a760a089016200472b565b915060c0880135905092959891949750929550565b5f8060408385031215620047ce575f80fd5b620047d98362003f9a565b946020939093013593505050565b5f805f8060808587031215620047fb575f80fd5b620048068562004038565b966020860135965060408601359560600135945092505050565b5f805f805f805f60e0888a03121562004837575f80fd5b8735620048448162003f85565b96506020880135620048568162003f85565b9550620048666040890162003f9a565b945062004876606089016200472b565b93506080880135925060a08801356001600160401b0381111562004898575f80fd5b620048a68a828b01620042e5565b92505060c0880135905092959891949750929550565b5f805f60608486031215620048cf575f80fd5b8335620048dc8162003f85565b9250620048ec6020850162004038565b915060408401356001600160401b0381111562004907575f80fd5b8401601f8101861362004918575f80fd5b62004929868235602084016200428b565b9150509250925092565b5f6020828403121562004944575f80fd5b8135620040688162003f85565b5f806040838503121562004963575f80fd5b8235620049708162003f85565b91506200414e6020840162004038565b81516001600160a01b0316815261018081016020830151620049ad60208401826001600160401b03169052565b506040830151620049c960408401826001600160a01b03169052565b506060830151620049e560608401826001600160401b03169052565b506080830151608083015260a083015162004a0b60a08401826001600160401b03169052565b5060c083015162004a2760c08401826001600160401b03169052565b5060e083015162004a4360e08401826001600160401b03169052565b50610100838101516001600160401b03908116918401919091526101208085015182169084015261014080850151909116908301526101608084015162004a8d828501826200419c565b505092915050565b634e487b7160e01b5f52601160045260245ffd5b6001600160401b0381811683821601908082111562004acc5762004acc62004a95565b5092915050565b808202811582820484141762000db35762000db362004a95565b5f63ffffffff80831681810362004b085762004b0862004a95565b6001019392505050565b5f6001600160a01b038086168352808516602084015250606060408301526200262060608301846200455e565b5f6001600160a01b038089168352808816602084015263ffffffff8716604084015280861660608401525060c0608083015262004b8060c08301856200455e565b82810360a084015262004b9481856200455e565b9998505050505050505050565b5f6020828403121562004bb2575f80fd5b5051919050565b848152606060208201525f62004bd360608301866200455e565b8281036040840152838152838560208301375f602085830101526020601f19601f86011682010191505095945050505050565b634e487b7160e01b5f52603260045260245ffd5b8082018082111562000db35762000db362004a95565b5f6001820162004c445762004c4462004a95565b5060010190565b5f6020828403121562004c5c575f80fd5b8151620040688162003f85565b6001600160401b0382811682821603908082111562004acc5762004acc62004a95565b6001600160401b0387811682526001600160a01b0387166020830152858116604083015260c082019062004cc460608401876200419c565b93909316608082015260a00152949350505050565b634e487b7160e01b5f52601260045260245ffd5b5f8262004cfe5762004cfe62004cd9565b500490565b5f8262004d145762004d1462004cd9565b500690565b8181038181111562000db35762000db362004a95565b5f8162004d405762004d4062004a95565b505f190190565b6001600160a01b038881168252871660208201526001600160401b03861660408201525f62004d7a60608301876200419c565b84608083015260e060a083015262004d9660e08301856200455e565b90508260c083015298975050505050505050565b5f825162004dbd8184602087016200453a565b9190910192915050565b6103208101610300808584378201835f5b600181101562004df957815183526020928301929091019060010162004dd8565b5050509392505050565b5f6020828403121562004e14575f80fd5b8151801515811462004068575f80fd5b6001600160a01b0383168152604060208201525f6200262360408301846200455e56fe60a06040526040516200091d3803806200091d833981016040819052620000269162000375565b828162000034828262000060565b50506001600160a01b038216608052620000576200005160805190565b620000c5565b5050506200046c565b6200006b8262000136565b6040516001600160a01b038316907fbc7cd75a20ee27fd9adebab32041f755214dbc6bffa90cc0225b39da2e5c2d3b905f90a2805115620000b757620000b28282620001b5565b505050565b620000c16200022e565b5050565b7f7e644d79422f17c01e4894b5f4f588d331ebfa28653d42ae832dc59e38c9798f620001065f80516020620008fd833981519152546001600160a01b031690565b604080516001600160a01b03928316815291841660208301520160405180910390a1620001338162000250565b50565b806001600160a01b03163b5f036200017157604051634c9c8ce360e01b81526001600160a01b03821660048201526024015b60405180910390fd5b807f360894a13ba1a3210667c828492db98dca3e2076cc3735a920a3ca505d382bbc5b80546001600160a01b0319166001600160a01b039290921691909117905550565b60605f80846001600160a01b031684604051620001d391906200044f565b5f60405180830381855af49150503d805f81146200020d576040519150601f19603f3d011682016040523d82523d5f602084013e62000212565b606091505b5090925090506200022585838362000291565b95945050505050565b34156200024e5760405163b398979f60e01b815260040160405180910390fd5b565b6001600160a01b0381166200027b57604051633173bdd160e11b81525f600482015260240162000168565b805f80516020620008fd83398151915262000194565b606082620002aa57620002a482620002f7565b620002f0565b8151158015620002c257506001600160a01b0384163b155b15620002ed57604051639996b31560e01b81526001600160a01b038516600482015260240162000168565b50805b9392505050565b805115620003085780518082602001fd5b604051630a12f52160e11b815260040160405180910390fd5b80516001600160a01b038116811462000338575f80fd5b919050565b634e487b7160e01b5f52604160045260245ffd5b5f5b838110156200036d57818101518382015260200162000353565b50505f910152565b5f805f6060848603121562000388575f80fd5b620003938462000321565b9250620003a36020850162000321565b60408501519092506001600160401b0380821115620003c0575f80fd5b818601915086601f830112620003d4575f80fd5b815181811115620003e957620003e96200033d565b604051601f8201601f19908116603f011681019083821181831017156200041457620004146200033d565b816040528281528960208487010111156200042d575f80fd5b6200044083602083016020880162000351565b80955050505050509250925092565b5f82516200046281846020870162000351565b9190910192915050565b608051610479620004845f395f601001526104795ff3fe608060405261000c61000e565b005b7f00000000000000000000000000000000000000000000000000000000000000006001600160a01b03163303610081575f357fffffffff000000000000000000000000000000000000000000000000000000001663278f794360e11b1461007957610077610085565b565b610077610095565b6100775b6100776100906100c3565b6100fa565b5f806100a43660048184610313565b8101906100b1919061034e565b915091506100bf8282610118565b5050565b5f6100f57f360894a13ba1a3210667c828492db98dca3e2076cc3735a920a3ca505d382bbc546001600160a01b031690565b905090565b365f80375f80365f845af43d5f803e808015610114573d5ff35b3d5ffd5b61012182610172565b6040516001600160a01b038316907fbc7cd75a20ee27fd9adebab32041f755214dbc6bffa90cc0225b39da2e5c2d3b905f90a280511561016a5761016582826101fa565b505050565b6100bf61026c565b806001600160a01b03163b5f036101ac57604051634c9c8ce360e01b81526001600160a01b03821660048201526024015b60405180910390fd5b7f360894a13ba1a3210667c828492db98dca3e2076cc3735a920a3ca505d382bbc805473ffffffffffffffffffffffffffffffffffffffff19166001600160a01b0392909216919091179055565b60605f80846001600160a01b0316846040516102169190610417565b5f60405180830381855af49150503d805f811461024e576040519150601f19603f3d011682016040523d82523d5f602084013e610253565b606091505b509150915061026385838361028b565b95945050505050565b34156100775760405163b398979f60e01b815260040160405180910390fd5b6060826102a05761029b826102ea565b6102e3565b81511580156102b757506001600160a01b0384163b155b156102e057604051639996b31560e01b81526001600160a01b03851660048201526024016101a3565b50805b9392505050565b8051156102fa5780518082602001fd5b604051630a12f52160e11b815260040160405180910390fd5b5f8085851115610321575f80fd5b8386111561032d575f80fd5b5050820193919092039150565b634e487b7160e01b5f52604160045260245ffd5b5f806040838503121561035f575f80fd5b82356001600160a01b0381168114610375575f80fd5b9150602083013567ffffffffffffffff80821115610391575f80fd5b818501915085601f8301126103a4575f80fd5b8135818111156103b6576103b661033a565b604051601f8201601f19908116603f011681019083821181831017156103de576103de61033a565b816040528281528860208487010111156103f6575f80fd5b826020860160208301375f6020848301015280955050505050509250929050565b5f82515f5b81811015610436576020818601810151858301520161041c565b505f92019182525091905056fea264697066735822122021e23b4641727aa4aa8fd2d3ef7960a43cab420d4c8632503bedc3eb2d30690764736f6c63430008140033b53127684a568b3173ae13b9f8a6016e243e63b6e8ee1178d6a717850b5d6103a26469706673582212200ba7709ac5122ac8329e53f4c86801ef6b95d32e3af0d4683702b6e1064e468764736f6c63430008140033",
  "linkReferences": {},
  "deployedLinkReferences": {}
}