{
  "_format": "hh-sol-artifact-1",
  "contractName": "PolygonRollupManager",
  "sourceName": "contracts/v2/PolygonRollupManager.sol",
  "abi": [
    {
      "inputs": [
        {
          "internalType": "contract IPolygonZkEVMGlobalExitRootV2",
          "name": "_globalExitRootManager",
          "type": "address"
        },
        {
          "internalType": "contract IERC20Upgradeable",
          "name": "_pol",
          "type": "address"
        },
        {
          "internalType": "contract IPolygonZkEVMBridge",
          "name": "_bridgeAddress",
          "type": "address"
        }
      ],
      "stateMutability": "nonpayable",
      "type": "constructor"
    },
    {
      "inputs": [],
      "name": "AccessControlOnlyCanRenounceRolesForSelf",
      "type": "error"
    },
    {
      "inputs": [],
      "name": "AddressDoNotHaveRequiredRole",
      "type": "error"
    },
    {
      "inputs": [],
      "name": "AllBatchesMustBeVerified",
      "type": "error"
    },
    {
      "inputs": [],
      "name": "AllSequencedMustBeVerified",
      "type": "error"
    },
    {
      "inputs": [],
      "name": "AllzkEVMSequencedBatchesMustBeVerified",
      "type": "error"
    },
    {
      "inputs": [],
      "name": "BatchFeeOutOfRange",
      "type": "error"
    },
    {
      "inputs": [],
      "name": "CannotUpdateWithUnconsolidatedPendingState",
      "type": "error"
    },
    {
      "inputs": [],
      "name": "ChainIDAlreadyExist",
      "type": "error"
    },
    {
      "inputs": [],
      "name": "ChainIDOutOfRange",
      "type": "error"
    },
    {
      "inputs": [],
      "name": "EmptyVerifySequencesData",
      "type": "error"
    },
    {
      "inputs": [],
      "name": "ExceedMaxVerifyBatches",
      "type": "error"
    },
    {
      "inputs": [],
      "name": "FinalNumBatchBelowLastVerifiedBatch",
      "type": "error"
    },
    {
      "inputs": [],
      "name": "FinalNumBatchDoesNotMatchPendingState",
      "type": "error"
    },
    {
      "inputs": [],
      "name": "FinalNumSequenceBelowLastVerifiedSequence",
      "type": "error"
    },
    {
      "inputs": [],
      "name": "FinalNumSequenceDoesNotMatchPendingState",
      "type": "error"
    },
    {
      "inputs": [],
      "name": "FinalPendingStateNumInvalid",
      "type": "error"
    },
    {
      "inputs": [],
      "name": "HaltTimeoutNotExpired",
      "type": "error"
    },
    {
      "inputs": [],
      "name": "InitBatchMustMatchCurrentForkID",
      "type": "error"
    },
    {
      "inputs": [],
      "name": "InitNumBatchAboveLastVerifiedBatch",
      "type": "error"
    },
    {
      "inputs": [],
      "name": "InitNumBatchDoesNotMatchPendingState",
      "type": "error"
    },
    {
      "inputs": [],
      "name": "InitSequenceMustMatchCurrentForkID",
      "type": "error"
    },
    {
      "inputs": [],
      "name": "InitSequenceNumDoesNotMatchPendingState",
      "type": "error"
    },
    {
      "inputs": [],
      "name": "InvalidPessimisticProof",
      "type": "error"
    },
    {
      "inputs": [],
      "name": "InvalidProof",
      "type": "error"
    },
    {
      "inputs": [],
      "name": "InvalidRangeBatchTimeTarget",
      "type": "error"
    },
    {
      "inputs": [],
      "name": "InvalidRangeMultiplierBatchFee",
      "type": "error"
    },
    {
      "inputs": [],
      "name": "InvalidRangeMultiplierZkGasPrice",
      "type": "error"
    },
    {
      "inputs": [],
      "name": "InvalidRangeSequenceTimeTarget",
      "type": "error"
    },
    {
      "inputs": [],
      "name": "InvalidRollup",
      "type": "error"
    },
    {
      "inputs": [],
      "name": "InvalidRollupType",
      "type": "error"
    },
    {
      "inputs": [],
      "name": "InvalidVerifierType",
      "type": "error"
    },
    {
      "inputs": [],
      "name": "L1InfoTreeLeafCountInvalid",
      "type": "error"
    },
    {
      "inputs": [],
      "name": "MustSequenceSomeBatch",
      "type": "error"
    },
    {
      "inputs": [],
      "name": "MustSequenceSomeBlob",
      "type": "error"
    },
    {
      "inputs": [],
      "name": "NewAccInputHashDoesNotExist",
      "type": "error"
    },
    {
      "inputs": [],
      "name": "NewPendingStateTimeoutMustBeLower",
      "type": "error"
    },
    {
      "inputs": [],
      "name": "NewStateRootNotInsidePrime",
      "type": "error"
    },
    {
      "inputs": [],
      "name": "NewTrustedAggregatorTimeoutMustBeLower",
      "type": "error"
    },
    {
      "inputs": [],
      "name": "NotAllowedAddress",
      "type": "error"
    },
    {
      "inputs": [],
      "name": "OldAccInputHashDoesNotExist",
      "type": "error"
    },
    {
      "inputs": [],
      "name": "OldStateRootDoesNotExist",
      "type": "error"
    },
    {
      "inputs": [],
      "name": "OnlyChainsWithPessimisticProofs",
      "type": "error"
    },
    {
      "inputs": [],
      "name": "OnlyEmergencyState",
      "type": "error"
    },
    {
      "inputs": [],
      "name": "OnlyNotEmergencyState",
      "type": "error"
    },
    {
      "inputs": [],
      "name": "OnlyRollupAdmin",
      "type": "error"
    },
    {
      "inputs": [],
      "name": "OnlyStateTransitionChains",
      "type": "error"
    },
    {
      "inputs": [],
      "name": "PendingStateDoesNotExist",
      "type": "error"
    },
    {
      "inputs": [],
      "name": "PendingStateInvalid",
      "type": "error"
    },
    {
      "inputs": [],
      "name": "PendingStateNotConsolidable",
      "type": "error"
    },
    {
      "inputs": [],
      "name": "PendingStateNumExist",
      "type": "error"
    },
    {
      "inputs": [],
      "name": "RollbackBatchIsNotEndOfSequence",
      "type": "error"
    },
    {
      "inputs": [],
      "name": "RollbackBatchIsNotValid",
      "type": "error"
    },
    {
      "inputs": [],
      "name": "RollupAddressAlreadyExist",
      "type": "error"
    },
    {
      "inputs": [],
      "name": "RollupIDNotAscendingOrder",
      "type": "error"
    },
    {
      "inputs": [],
      "name": "RollupMustExist",
      "type": "error"
    },
    {
      "inputs": [],
      "name": "RollupTypeDoesNotExist",
      "type": "error"
    },
    {
      "inputs": [],
      "name": "RollupTypeObsolete",
      "type": "error"
    },
    {
      "inputs": [],
      "name": "SenderMustBeRollup",
      "type": "error"
    },
    {
      "inputs": [],
      "name": "StoredRootMustBeDifferentThanNewRoot",
      "type": "error"
    },
    {
      "inputs": [],
      "name": "TrustedAggregatorTimeoutNotExpired",
      "type": "error"
    },
    {
      "inputs": [],
      "name": "UpdateNotCompatible",
      "type": "error"
    },
    {
      "inputs": [],
      "name": "UpdateToOldRollupTypeID",
      "type": "error"
    },
    {
      "inputs": [],
      "name": "UpdateToSameRollupTypeID",
      "type": "error"
    },
    {
      "inputs": [],
      "name": "zkGasPriceOfRange",
      "type": "error"
    },
    {
      "anonymous": false,
      "inputs": [
        {
          "indexed": true,
          "internalType": "uint32",
          "name": "rollupID",
          "type": "uint32"
        },
        {
          "indexed": false,
          "internalType": "uint64",
          "name": "forkID",
          "type": "uint64"
        },
        {
          "indexed": false,
          "internalType": "address",
          "name": "rollupAddress",
          "type": "address"
        },
        {
          "indexed": false,
          "internalType": "uint64",
          "name": "chainID",
          "type": "uint64"
        },
        {
          "indexed": false,
          "internalType": "enum IPolygonRollupManager.VerifierType",
          "name": "rollupVerifierType",
          "type": "uint8"
        },
        {
          "indexed": false,
          "internalType": "uint64",
          "name": "lastVerifiedBatchBeforeUpgrade",
          "type": "uint64"
        },
        {
          "indexed": false,
          "internalType": "bytes32",
          "name": "programVKey",
          "type": "bytes32"
        }
      ],
      "name": "AddExistingRollup",
      "type": "event"
    },
    {
      "anonymous": false,
      "inputs": [
        {
          "indexed": true,
          "internalType": "uint32",
          "name": "rollupTypeID",
          "type": "uint32"
        },
        {
          "indexed": false,
          "internalType": "address",
          "name": "consensusImplementation",
          "type": "address"
        },
        {
          "indexed": false,
          "internalType": "address",
          "name": "verifier",
          "type": "address"
        },
        {
          "indexed": false,
          "internalType": "uint64",
          "name": "forkID",
          "type": "uint64"
        },
        {
          "indexed": false,
          "internalType": "enum IPolygonRollupManager.VerifierType",
          "name": "rollupVerifierType",
          "type": "uint8"
        },
        {
          "indexed": false,
          "internalType": "bytes32",
          "name": "genesis",
          "type": "bytes32"
        },
        {
          "indexed": false,
          "internalType": "string",
          "name": "description",
          "type": "string"
        },
        {
          "indexed": false,
          "internalType": "bytes32",
          "name": "programVKey",
          "type": "bytes32"
        }
      ],
      "name": "AddNewRollupType",
      "type": "event"
    },
    {
      "anonymous": false,
      "inputs": [
        {
          "indexed": true,
          "internalType": "uint32",
          "name": "rollupID",
          "type": "uint32"
        },
        {
          "indexed": false,
          "internalType": "uint32",
          "name": "rollupTypeID",
          "type": "uint32"
        },
        {
          "indexed": false,
          "internalType": "address",
          "name": "rollupAddress",
          "type": "address"
        },
        {
          "indexed": false,
          "internalType": "uint64",
          "name": "chainID",
          "type": "uint64"
        },
        {
          "indexed": false,
          "internalType": "address",
          "name": "gasTokenAddress",
          "type": "address"
        }
      ],
      "name": "CreateNewRollup",
      "type": "event"
    },
    {
      "anonymous": false,
      "inputs": [],
      "name": "EmergencyStateActivated",
      "type": "event"
    },
    {
      "anonymous": false,
      "inputs": [],
      "name": "EmergencyStateDeactivated",
      "type": "event"
    },
    {
      "anonymous": false,
      "inputs": [
        {
          "indexed": false,
          "internalType": "uint8",
          "name": "version",
          "type": "uint8"
        }
      ],
      "name": "Initialized",
      "type": "event"
    },
    {
      "anonymous": false,
      "inputs": [
        {
          "indexed": true,
          "internalType": "uint32",
          "name": "rollupTypeID",
          "type": "uint32"
        }
      ],
      "name": "ObsoleteRollupType",
      "type": "event"
    },
    {
      "anonymous": false,
      "inputs": [
        {
          "indexed": true,
          "internalType": "uint32",
          "name": "rollupID",
          "type": "uint32"
        },
        {
          "indexed": false,
          "internalType": "uint64",
          "name": "lastBatchSequenced",
          "type": "uint64"
        }
      ],
      "name": "OnSequenceBatches",
      "type": "event"
    },
    {
      "anonymous": false,
      "inputs": [
        {
          "indexed": true,
          "internalType": "bytes32",
          "name": "role",
          "type": "bytes32"
        },
        {
          "indexed": true,
          "internalType": "bytes32",
          "name": "previousAdminRole",
          "type": "bytes32"
        },
        {
          "indexed": true,
          "internalType": "bytes32",
          "name": "newAdminRole",
          "type": "bytes32"
        }
      ],
      "name": "RoleAdminChanged",
      "type": "event"
    },
    {
      "anonymous": false,
      "inputs": [
        {
          "indexed": true,
          "internalType": "bytes32",
          "name": "role",
          "type": "bytes32"
        },
        {
          "indexed": true,
          "internalType": "address",
          "name": "account",
          "type": "address"
        },
        {
          "indexed": true,
          "internalType": "address",
          "name": "sender",
          "type": "address"
        }
      ],
      "name": "RoleGranted",
      "type": "event"
    },
    {
      "anonymous": false,
      "inputs": [
        {
          "indexed": true,
          "internalType": "bytes32",
          "name": "role",
          "type": "bytes32"
        },
        {
          "indexed": true,
          "internalType": "address",
          "name": "account",
          "type": "address"
        },
        {
          "indexed": true,
          "internalType": "address",
          "name": "sender",
          "type": "address"
        }
      ],
      "name": "RoleRevoked",
      "type": "event"
    },
    {
      "anonymous": false,
      "inputs": [
        {
          "indexed": true,
          "internalType": "uint32",
          "name": "rollupID",
          "type": "uint32"
        },
        {
          "indexed": true,
          "internalType": "uint64",
          "name": "targetBatch",
          "type": "uint64"
        },
        {
          "indexed": false,
          "internalType": "bytes32",
          "name": "accInputHashToRollback",
          "type": "bytes32"
        }
      ],
      "name": "RollbackBatches",
      "type": "event"
    },
    {
      "anonymous": false,
      "inputs": [
        {
          "indexed": false,
          "internalType": "uint256",
          "name": "newBatchFee",
          "type": "uint256"
        }
      ],
      "name": "SetBatchFee",
      "type": "event"
    },
    {
      "anonymous": false,
      "inputs": [
        {
          "indexed": false,
          "internalType": "address",
          "name": "newTrustedAggregator",
          "type": "address"
        }
      ],
      "name": "SetTrustedAggregator",
      "type": "event"
    },
    {
      "anonymous": false,
      "inputs": [
        {
          "indexed": true,
          "internalType": "uint32",
          "name": "rollupID",
          "type": "uint32"
        },
        {
          "indexed": false,
          "internalType": "uint32",
          "name": "newRollupTypeID",
          "type": "uint32"
        },
        {
          "indexed": false,
          "internalType": "uint64",
          "name": "lastVerifiedBatchBeforeUpgrade",
          "type": "uint64"
        }
      ],
      "name": "UpdateRollup",
      "type": "event"
    },
    {
      "anonymous": false,
      "inputs": [
        {
          "indexed": false,
          "internalType": "string",
          "name": "rollupManagerVersion",
          "type": "string"
        }
      ],
      "name": "UpdateRollupManagerVersion",
      "type": "event"
    },
    {
      "anonymous": false,
      "inputs": [
        {
          "indexed": true,
          "internalType": "uint32",
          "name": "rollupID",
          "type": "uint32"
        },
        {
          "indexed": false,
          "internalType": "uint64",
          "name": "numBatch",
          "type": "uint64"
        },
        {
          "indexed": false,
          "internalType": "bytes32",
          "name": "stateRoot",
          "type": "bytes32"
        },
        {
          "indexed": false,
          "internalType": "bytes32",
          "name": "exitRoot",
          "type": "bytes32"
        },
        {
          "indexed": true,
          "internalType": "address",
          "name": "aggregator",
          "type": "address"
        }
      ],
      "name": "VerifyBatchesTrustedAggregator",
      "type": "event"
    },
    {
      "inputs": [],
      "name": "DEFAULT_ADMIN_ROLE",
      "outputs": [
        {
          "internalType": "bytes32",
          "name": "",
          "type": "bytes32"
        }
      ],
      "stateMutability": "view",
      "type": "function"
    },
    {
      "inputs": [],
      "name": "ROLLUP_MANAGER_VERSION",
      "outputs": [
        {
          "internalType": "string",
          "name": "",
          "type": "string"
        }
      ],
      "stateMutability": "view",
      "type": "function"
    },
    {
      "inputs": [],
      "name": "activateEmergencyState",
      "outputs": [],
      "stateMutability": "nonpayable",
      "type": "function"
    },
    {
      "inputs": [
        {
          "internalType": "contract IPolygonRollupBase",
          "name": "rollupAddress",
          "type": "address"
        },
        {
          "internalType": "address",
          "name": "verifier",
          "type": "address"
        },
        {
          "internalType": "uint64",
          "name": "forkID",
          "type": "uint64"
        },
        {
          "internalType": "uint64",
          "name": "chainID",
          "type": "uint64"
        },
        {
          "internalType": "bytes32",
          "name": "initRoot",
          "type": "bytes32"
        },
        {
          "internalType": "enum IPolygonRollupManager.VerifierType",
          "name": "rollupVerifierType",
          "type": "uint8"
        },
        {
          "internalType": "bytes32",
          "name": "programVKey",
          "type": "bytes32"
        }
      ],
      "name": "addExistingRollup",
      "outputs": [],
      "stateMutability": "nonpayable",
      "type": "function"
    },
    {
      "inputs": [
        {
          "internalType": "address",
          "name": "consensusImplementation",
          "type": "address"
        },
        {
          "internalType": "address",
          "name": "verifier",
          "type": "address"
        },
        {
          "internalType": "uint64",
          "name": "forkID",
          "type": "uint64"
        },
        {
          "internalType": "enum IPolygonRollupManager.VerifierType",
          "name": "rollupVerifierType",
          "type": "uint8"
        },
        {
          "internalType": "bytes32",
          "name": "genesis",
          "type": "bytes32"
        },
        {
          "internalType": "string",
          "name": "description",
          "type": "string"
        },
        {
          "internalType": "bytes32",
          "name": "programVKey",
          "type": "bytes32"
        }
      ],
      "name": "addNewRollupType",
      "outputs": [],
      "stateMutability": "nonpayable",
      "type": "function"
    },
    {
      "inputs": [],
      "name": "bridgeAddress",
      "outputs": [
        {
          "internalType": "contract IPolygonZkEVMBridge",
          "name": "",
          "type": "address"
        }
      ],
      "stateMutability": "view",
      "type": "function"
    },
    {
      "inputs": [],
      "name": "calculateRewardPerBatch",
      "outputs": [
        {
          "internalType": "uint256",
          "name": "",
          "type": "uint256"
        }
      ],
      "stateMutability": "view",
      "type": "function"
    },
    {
      "inputs": [
        {
          "internalType": "uint64",
          "name": "chainID",
          "type": "uint64"
        }
      ],
      "name": "chainIDToRollupID",
      "outputs": [
        {
          "internalType": "uint32",
          "name": "rollupID",
          "type": "uint32"
        }
      ],
      "stateMutability": "view",
      "type": "function"
    },
    {
      "inputs": [
        {
          "internalType": "uint32",
          "name": "rollupTypeID",
          "type": "uint32"
        },
        {
          "internalType": "uint64",
          "name": "chainID",
          "type": "uint64"
        },
        {
          "internalType": "address",
          "name": "admin",
          "type": "address"
        },
        {
          "internalType": "address",
          "name": "sequencer",
          "type": "address"
        },
        {
          "internalType": "address",
          "name": "gasTokenAddress",
          "type": "address"
        },
        {
          "internalType": "string",
          "name": "sequencerURL",
          "type": "string"
        },
        {
          "internalType": "string",
          "name": "networkName",
          "type": "string"
        }
      ],
      "name": "createNewRollup",
      "outputs": [],
      "stateMutability": "nonpayable",
      "type": "function"
    },
    {
      "inputs": [],
      "name": "deactivateEmergencyState",
      "outputs": [],
      "stateMutability": "nonpayable",
      "type": "function"
    },
    {
      "inputs": [],
      "name": "getBatchFee",
      "outputs": [
        {
          "internalType": "uint256",
          "name": "",
          "type": "uint256"
        }
      ],
      "stateMutability": "view",
      "type": "function"
    },
    {
      "inputs": [],
      "name": "getForcedBatchFee",
      "outputs": [
        {
          "internalType": "uint256",
          "name": "",
          "type": "uint256"
        }
      ],
      "stateMutability": "view",
      "type": "function"
    },
    {
      "inputs": [
        {
          "internalType": "uint32",
          "name": "rollupID",
          "type": "uint32"
        },
        {
          "internalType": "bytes32",
          "name": "l1InfoTreeRoot",
          "type": "bytes32"
        },
        {
          "internalType": "bytes32",
          "name": "newLocalExitRoot",
          "type": "bytes32"
        },
        {
          "internalType": "bytes32",
          "name": "newPessimisticRoot",
          "type": "bytes32"
        }
      ],
      "name": "getInputPessimisticBytes",
      "outputs": [
        {
          "internalType": "bytes",
          "name": "",
          "type": "bytes"
        }
      ],
      "stateMutability": "view",
      "type": "function"
    },
    {
      "inputs": [
        {
          "internalType": "uint32",
          "name": "rollupID",
          "type": "uint32"
        },
        {
          "internalType": "uint64",
          "name": "initNumBatch",
          "type": "uint64"
        },
        {
          "internalType": "uint64",
          "name": "finalNewBatch",
          "type": "uint64"
        },
        {
          "internalType": "bytes32",
          "name": "newLocalExitRoot",
          "type": "bytes32"
        },
        {
          "internalType": "bytes32",
          "name": "oldStateRoot",
          "type": "bytes32"
        },
        {
          "internalType": "bytes32",
          "name": "newStateRoot",
          "type": "bytes32"
        }
      ],
      "name": "getInputSnarkBytes",
      "outputs": [
        {
          "internalType": "bytes",
          "name": "",
          "type": "bytes"
        }
      ],
      "stateMutability": "view",
      "type": "function"
    },
    {
      "inputs": [
        {
          "internalType": "uint32",
          "name": "rollupID",
          "type": "uint32"
        }
      ],
      "name": "getLastVerifiedBatch",
      "outputs": [
        {
          "internalType": "uint64",
          "name": "",
          "type": "uint64"
        }
      ],
      "stateMutability": "view",
      "type": "function"
    },
    {
      "inputs": [
        {
          "internalType": "bytes32",
          "name": "role",
          "type": "bytes32"
        }
      ],
      "name": "getRoleAdmin",
      "outputs": [
        {
          "internalType": "bytes32",
          "name": "",
          "type": "bytes32"
        }
      ],
      "stateMutability": "view",
      "type": "function"
    },
    {
      "inputs": [
        {
          "internalType": "uint32",
          "name": "rollupID",
          "type": "uint32"
        },
        {
          "internalType": "uint64",
          "name": "batchNum",
          "type": "uint64"
        }
      ],
      "name": "getRollupBatchNumToStateRoot",
      "outputs": [
        {
          "internalType": "bytes32",
          "name": "",
          "type": "bytes32"
        }
      ],
      "stateMutability": "view",
      "type": "function"
    },
    {
      "inputs": [],
      "name": "getRollupExitRoot",
      "outputs": [
        {
          "internalType": "bytes32",
          "name": "",
          "type": "bytes32"
        }
      ],
      "stateMutability": "view",
      "type": "function"
    },
    {
      "inputs": [
        {
          "internalType": "uint32",
          "name": "rollupID",
          "type": "uint32"
        },
        {
          "internalType": "uint64",
          "name": "batchNum",
          "type": "uint64"
        }
      ],
      "name": "getRollupSequencedBatches",
      "outputs": [
        {
          "components": [
            {
              "internalType": "bytes32",
              "name": "accInputHash",
              "type": "bytes32"
            },
            {
              "internalType": "uint64",
              "name": "sequencedTimestamp",
              "type": "uint64"
            },
            {
              "internalType": "uint64",
              "name": "previousLastBatchSequenced",
              "type": "uint64"
            }
          ],
          "internalType": "struct LegacyZKEVMStateVariables.SequencedBatchData",
          "name": "",
          "type": "tuple"
        }
      ],
      "stateMutability": "view",
      "type": "function"
    },
    {
      "inputs": [],
      "name": "globalExitRootManager",
      "outputs": [
        {
          "internalType": "contract IPolygonZkEVMGlobalExitRootV2",
          "name": "",
          "type": "address"
        }
      ],
      "stateMutability": "view",
      "type": "function"
    },
    {
      "inputs": [
        {
          "internalType": "bytes32",
          "name": "role",
          "type": "bytes32"
        },
        {
          "internalType": "address",
          "name": "account",
          "type": "address"
        }
      ],
      "name": "grantRole",
      "outputs": [],
      "stateMutability": "nonpayable",
      "type": "function"
    },
    {
      "inputs": [
        {
          "internalType": "bytes32",
          "name": "role",
          "type": "bytes32"
        },
        {
          "internalType": "address",
          "name": "account",
          "type": "address"
        }
      ],
      "name": "hasRole",
      "outputs": [
        {
          "internalType": "bool",
          "name": "",
          "type": "bool"
        }
      ],
      "stateMutability": "view",
      "type": "function"
    },
    {
      "inputs": [],
      "name": "initialize",
      "outputs": [],
      "stateMutability": "nonpayable",
      "type": "function"
    },
    {
      "inputs": [],
      "name": "isEmergencyState",
      "outputs": [
        {
          "internalType": "bool",
          "name": "",
          "type": "bool"
        }
      ],
      "stateMutability": "view",
      "type": "function"
    },
    {
      "inputs": [],
      "name": "lastAggregationTimestamp",
      "outputs": [
        {
          "internalType": "uint64",
          "name": "",
          "type": "uint64"
        }
      ],
      "stateMutability": "view",
      "type": "function"
    },
    {
      "inputs": [],
      "name": "lastDeactivatedEmergencyStateTimestamp",
      "outputs": [
        {
          "internalType": "uint64",
          "name": "",
          "type": "uint64"
        }
      ],
      "stateMutability": "view",
      "type": "function"
    },
    {
      "inputs": [
        {
          "internalType": "uint32",
          "name": "rollupTypeID",
          "type": "uint32"
        }
      ],
      "name": "obsoleteRollupType",
      "outputs": [],
      "stateMutability": "nonpayable",
      "type": "function"
    },
    {
      "inputs": [
        {
          "internalType": "uint64",
          "name": "newSequencedBatches",
          "type": "uint64"
        },
        {
          "internalType": "bytes32",
          "name": "newAccInputHash",
          "type": "bytes32"
        }
      ],
      "name": "onSequenceBatches",
      "outputs": [
        {
          "internalType": "uint64",
          "name": "",
          "type": "uint64"
        }
      ],
      "stateMutability": "nonpayable",
      "type": "function"
    },
    {
      "inputs": [],
      "name": "pol",
      "outputs": [
        {
          "internalType": "contract IERC20Upgradeable",
          "name": "",
          "type": "address"
        }
      ],
      "stateMutability": "view",
      "type": "function"
    },
    {
      "inputs": [
        {
          "internalType": "bytes32",
          "name": "role",
          "type": "bytes32"
        },
        {
          "internalType": "address",
          "name": "account",
          "type": "address"
        }
      ],
      "name": "renounceRole",
      "outputs": [],
      "stateMutability": "nonpayable",
      "type": "function"
    },
    {
      "inputs": [
        {
          "internalType": "bytes32",
          "name": "role",
          "type": "bytes32"
        },
        {
          "internalType": "address",
          "name": "account",
          "type": "address"
        }
      ],
      "name": "revokeRole",
      "outputs": [],
      "stateMutability": "nonpayable",
      "type": "function"
    },
    {
      "inputs": [
        {
          "internalType": "contract IPolygonRollupBase",
          "name": "rollupContract",
          "type": "address"
        },
        {
          "internalType": "uint64",
          "name": "targetBatch",
          "type": "uint64"
        }
      ],
      "name": "rollbackBatches",
      "outputs": [],
      "stateMutability": "nonpayable",
      "type": "function"
    },
    {
      "inputs": [
        {
          "internalType": "address",
          "name": "rollupAddress",
          "type": "address"
        }
      ],
      "name": "rollupAddressToID",
      "outputs": [
        {
          "internalType": "uint32",
          "name": "rollupID",
          "type": "uint32"
        }
      ],
      "stateMutability": "view",
      "type": "function"
    },
    {
      "inputs": [],
      "name": "rollupCount",
      "outputs": [
        {
          "internalType": "uint32",
          "name": "",
          "type": "uint32"
        }
      ],
      "stateMutability": "view",
      "type": "function"
    },
    {
      "inputs": [
        {
          "internalType": "uint32",
          "name": "rollupID",
          "type": "uint32"
        }
      ],
      "name": "rollupIDToRollupData",
      "outputs": [
        {
          "components": [
            {
              "internalType": "contract IPolygonRollupBase",
              "name": "rollupContract",
              "type": "address"
            },
            {
              "internalType": "uint64",
              "name": "chainID",
              "type": "uint64"
            },
            {
              "internalType": "address",
              "name": "verifier",
              "type": "address"
            },
            {
              "internalType": "uint64",
              "name": "forkID",
              "type": "uint64"
            },
            {
              "internalType": "bytes32",
              "name": "lastLocalExitRoot",
              "type": "bytes32"
            },
            {
              "internalType": "uint64",
              "name": "lastBatchSequenced",
              "type": "uint64"
            },
            {
              "internalType": "uint64",
              "name": "lastVerifiedBatch",
              "type": "uint64"
            },
            {
              "internalType": "uint64",
              "name": "_legacyLastPendingState",
              "type": "uint64"
            },
            {
              "internalType": "uint64",
              "name": "_legacyLastPendingStateConsolidated",
              "type": "uint64"
            },
            {
              "internalType": "uint64",
              "name": "lastVerifiedBatchBeforeUpgrade",
              "type": "uint64"
            },
            {
              "internalType": "uint64",
              "name": "rollupTypeID",
              "type": "uint64"
            },
            {
              "internalType": "enum IPolygonRollupManager.VerifierType",
              "name": "rollupVerifierType",
              "type": "uint8"
            }
          ],
          "internalType": "struct PolygonRollupManager.RollupDataReturn",
          "name": "rollupData",
          "type": "tuple"
        }
      ],
      "stateMutability": "view",
      "type": "function"
    },
    {
      "inputs": [
        {
          "internalType": "uint32",
          "name": "rollupID",
          "type": "uint32"
        }
      ],
      "name": "rollupIDToRollupDataV2",
      "outputs": [
        {
          "components": [
            {
              "internalType": "address",
              "name": "rollupContract",
              "type": "address"
            },
            {
              "internalType": "uint64",
              "name": "chainID",
              "type": "uint64"
            },
            {
              "internalType": "address",
              "name": "verifier",
              "type": "address"
            },
            {
              "internalType": "uint64",
              "name": "forkID",
              "type": "uint64"
            },
            {
              "internalType": "bytes32",
              "name": "lastLocalExitRoot",
              "type": "bytes32"
            },
            {
              "internalType": "uint64",
              "name": "lastBatchSequenced",
              "type": "uint64"
            },
            {
              "internalType": "uint64",
              "name": "lastVerifiedBatch",
              "type": "uint64"
            },
            {
              "internalType": "uint64",
              "name": "lastVerifiedBatchBeforeUpgrade",
              "type": "uint64"
            },
            {
              "internalType": "uint64",
              "name": "rollupTypeID",
              "type": "uint64"
            },
            {
              "internalType": "enum IPolygonRollupManager.VerifierType",
              "name": "rollupVerifierType",
              "type": "uint8"
            },
            {
              "internalType": "bytes32",
              "name": "lastPessimisticRoot",
              "type": "bytes32"
            },
            {
              "internalType": "bytes32",
              "name": "programVKey",
              "type": "bytes32"
            }
          ],
          "internalType": "struct PolygonRollupManager.RollupDataReturnV2",
          "name": "rollupData",
          "type": "tuple"
        }
      ],
      "stateMutability": "view",
      "type": "function"
    },
    {
      "inputs": [],
      "name": "rollupTypeCount",
      "outputs": [
        {
          "internalType": "uint32",
          "name": "",
          "type": "uint32"
        }
      ],
      "stateMutability": "view",
      "type": "function"
    },
    {
      "inputs": [
        {
          "internalType": "uint32",
          "name": "rollupTypeID",
          "type": "uint32"
        }
      ],
      "name": "rollupTypeMap",
      "outputs": [
        {
          "internalType": "address",
          "name": "consensusImplementation",
          "type": "address"
        },
        {
          "internalType": "address",
          "name": "verifier",
          "type": "address"
        },
        {
          "internalType": "uint64",
          "name": "forkID",
          "type": "uint64"
        },
        {
          "internalType": "enum IPolygonRollupManager.VerifierType",
          "name": "rollupVerifierType",
          "type": "uint8"
        },
        {
          "internalType": "bool",
          "name": "obsolete",
          "type": "bool"
        },
        {
          "internalType": "bytes32",
          "name": "genesis",
          "type": "bytes32"
        },
        {
          "internalType": "bytes32",
          "name": "programVKey",
          "type": "bytes32"
        }
      ],
      "stateMutability": "view",
      "type": "function"
    },
    {
      "inputs": [
        {
          "internalType": "uint256",
          "name": "newBatchFee",
          "type": "uint256"
        }
      ],
      "name": "setBatchFee",
      "outputs": [],
      "stateMutability": "nonpayable",
      "type": "function"
    },
    {
      "inputs": [],
      "name": "totalSequencedBatches",
      "outputs": [
        {
          "internalType": "uint64",
          "name": "",
          "type": "uint64"
        }
      ],
      "stateMutability": "view",
      "type": "function"
    },
    {
      "inputs": [],
      "name": "totalVerifiedBatches",
      "outputs": [
        {
          "internalType": "uint64",
          "name": "",
          "type": "uint64"
        }
      ],
      "stateMutability": "view",
      "type": "function"
    },
    {
      "inputs": [
        {
          "internalType": "contract ITransparentUpgradeableProxy",
          "name": "rollupContract",
          "type": "address"
        },
        {
          "internalType": "uint32",
          "name": "newRollupTypeID",
          "type": "uint32"
        },
        {
          "internalType": "bytes",
          "name": "upgradeData",
          "type": "bytes"
        }
      ],
      "name": "updateRollup",
      "outputs": [],
      "stateMutability": "nonpayable",
      "type": "function"
    },
    {
      "inputs": [
        {
          "internalType": "contract ITransparentUpgradeableProxy",
          "name": "rollupContract",
          "type": "address"
        },
        {
          "internalType": "uint32",
          "name": "newRollupTypeID",
          "type": "uint32"
        }
      ],
      "name": "updateRollupByRollupAdmin",
      "outputs": [],
      "stateMutability": "nonpayable",
      "type": "function"
    },
    {
      "inputs": [
        {
          "internalType": "uint32",
          "name": "rollupID",
          "type": "uint32"
        },
        {
          "internalType": "uint64",
          "name": "pendingStateNum",
          "type": "uint64"
        },
        {
          "internalType": "uint64",
          "name": "initNumBatch",
          "type": "uint64"
        },
        {
          "internalType": "uint64",
          "name": "finalNewBatch",
          "type": "uint64"
        },
        {
          "internalType": "bytes32",
          "name": "newLocalExitRoot",
          "type": "bytes32"
        },
        {
          "internalType": "bytes32",
          "name": "newStateRoot",
          "type": "bytes32"
        },
        {
          "internalType": "address",
          "name": "beneficiary",
          "type": "address"
        },
        {
          "internalType": "bytes32[24]",
          "name": "proof",
          "type": "bytes32[24]"
        }
      ],
      "name": "verifyBatchesTrustedAggregator",
      "outputs": [],
      "stateMutability": "nonpayable",
      "type": "function"
    },
    {
      "inputs": [
        {
          "internalType": "uint32",
          "name": "rollupID",
          "type": "uint32"
        },
        {
          "internalType": "uint32",
          "name": "l1InfoTreeLeafCount",
          "type": "uint32"
        },
        {
          "internalType": "bytes32",
          "name": "newLocalExitRoot",
          "type": "bytes32"
        },
        {
          "internalType": "bytes32",
          "name": "newPessimisticRoot",
          "type": "bytes32"
        },
        {
          "internalType": "bytes",
          "name": "proof",
          "type": "bytes"
        }
      ],
      "name": "verifyPessimisticTrustedAggregator",
      "outputs": [],
      "stateMutability": "nonpayable",
      "type": "function"
    }
  ],
  "bytecode": "0x60e060405234801562000010575f80fd5b506040516200523038038062005230833981016040819052620000339162000136565b6001600160a01b0380841660805282811660c052811660a052620000566200005f565b50505062000187565b5f54610100900460ff1615620000cb5760405162461bcd60e51b815260206004820152602760248201527f496e697469616c697a61626c653a20636f6e747261637420697320696e697469604482015266616c697a696e6760c81b606482015260840160405180910390fd5b5f5460ff90811610156200011c575f805460ff191660ff9081179091556040519081527f7f26b83ff96e1f2b6a682f133852f6798a09c465da95921460cefb38474024989060200160405180910390a15b565b6001600160a01b038116811462000133575f80fd5b50565b5f805f6060848603121562000149575f80fd5b835162000156816200011e565b602085015190935062000169816200011e565b60408501519092506200017c816200011e565b809150509250925092565b60805160a05160c05161504d620001e35f395f818161089c01528181611e260152612e5a01525f818161072d015281816128bf0152612f2601525f81816107df01528181610a2e0152818161153e0152611686015261504d5ff3fe608060405234801562000010575f80fd5b5060043610620002fc575f3560e01c80638fd88cc211620001a3578063c4c928c211620000fb578063dbc16976116200009f578063e46761c41162000077578063e46761c41462000896578063f4e9267514620008be578063f9c4c2ae14620008cf575f80fd5b8063dbc16976146200085a578063dde0ff771462000864578063dfdb8c5e146200087f575f80fd5b8063d5073f6f11620000d3578063d5073f6f1462000801578063d547741f1462000818578063d8905812146200082f575f80fd5b8063c4c928c2146200079a578063ceee281d14620007b1578063d02103ca14620007d9575f80fd5b80639e36c5651162000163578063a3c573eb116200013b578063a3c573eb1462000727578063abcb51981462000768578063c1acbc34146200077f575f80fd5b80639e36c56514620006fe578063a217fddf1462000715578063a2967d99146200071d575f80fd5b80638fd88cc2146200067457806391d14854146200068b57806397bf07e814620006c657806399f5634e14620006dd5780639a908e7314620006e7575f80fd5b8063477fa2701162000257578063727885e911620002175780637fb6e76a11620001ef5780637fb6e76a146200062b5780638129fc1c14620006535780638875f03c146200065d575f80fd5b8063727885e914620005c857806374d9c24414620005df5780637975fcfe1462000605575f80fd5b8063477fa27014620004db57806355a71ee014620004e457806360469169146200052757806365c0504d14620005315780637222020f14620005b1575f80fd5b80632072f6c511620002bf5780632f2ff15d11620002975780632f2ff15d146200049957806330c27dde14620004b057806336568abe14620004c4575f80fd5b80632072f6c514620003a7578063248a9ca314620003b15780632528016914620003e5575f80fd5b8063066ec012146200030057806311f6b28714620003315780631489ed10146200034857806315064c9614620003615780631796a1ae1462000380575b5f80fd5b60845462000314906001600160401b031681565b6040516001600160401b0390911681526020015b60405180910390f35b6200031462000342366004620039c5565b620008f5565b6200035f6200035936600462003a14565b62000924565b005b606f546200036f9060ff1681565b604051901515815260200162000328565b607e54620003919063ffffffff1681565b60405163ffffffff909116815260200162000328565b6200035f62000b14565b620003d6620003c236600462003aae565b5f9081526034602052604090206001015490565b60405190815260200162000328565b62000465620003f636600462003ac6565b60408051606080820183525f808352602080840182905292840181905263ffffffff959095168552608182528285206001600160401b03948516865260030182529382902082519485018352805485526001015480841691850191909152600160401b90049091169082015290565b60408051825181526020808401516001600160401b0390811691830191909152928201519092169082015260600162000328565b6200035f620004aa36600462003afc565b62000bf0565b60875462000314906001600160401b031681565b6200035f620004d536600462003afc565b62000c1d565b608654620003d6565b620003d6620004f536600462003ac6565b63ffffffff82165f9081526081602090815260408083206001600160401b038516845260020190915290205492915050565b620003d662000c57565b6200059c62000542366004620039c5565b607f6020525f908152604090208054600182015460028301546003909301546001600160a01b0392831693928216926001600160401b03600160a01b8404169260ff600160e01b8204811693600160e81b90920416919087565b60405162000328979695949392919062003b62565b6200035f620005c2366004620039c5565b62000c6e565b6200035f620005d936600462003c64565b62000d64565b620005f6620005f0366004620039c5565b620011f2565b60405162000328919062003d2a565b6200061c6200061636600462003e36565b62001324565b60405162000328919062003ee9565b620003916200063c36600462003efd565b60836020525f908152604090205463ffffffff1681565b6200035f62001356565b6200035f6200066e36600462003f19565b6200149d565b6200035f6200068536600462003fbf565b62001753565b6200036f6200069c36600462003afc565b5f9182526034602090815260408084206001600160a01b0393909316845291905290205460ff1690565b6200035f620006d736600462003fed565b62001aed565b620003d662001e05565b62000314620006f83660046200406f565b62001ee6565b6200061c6200070f3660046200409a565b620020e7565b620003d65f81565b620003d662002119565b6200074f7f000000000000000000000000000000000000000000000000000000000000000081565b6040516001600160a01b03909116815260200162000328565b6200035f62000779366004620040d3565b620024e1565b6084546200031490600160801b90046001600160401b031681565b6200035f620007ab3660046200416f565b6200275c565b62000391620007c2366004620041e6565b60826020525f908152604090205463ffffffff1681565b6200074f7f000000000000000000000000000000000000000000000000000000000000000081565b6200035f6200081236600462003aae565b6200279b565b6200035f6200082936600462003afc565b6200283d565b6200061c6040518060400160405280600b81526020016a70657373696d697374696360a81b81525081565b6200035f62002865565b6084546200031490600160401b90046001600160401b031681565b6200035f6200089036600462004204565b62002931565b6200074f7f000000000000000000000000000000000000000000000000000000000000000081565b608054620003919063ffffffff1681565b620008e6620008e0366004620039c5565b62002a81565b60405162000328919062004233565b63ffffffff81165f90815260816020526040812060060154600160401b90046001600160401b03165b92915050565b7f084e94f375e9d647f87f5b2ceffba1e062c70f6009fdbcf80291e803b5c9edd4620009508162002be1565b6001600160401b03881615620009795760405163306dfc5760e11b815260040160405180910390fd5b63ffffffff89165f908152608160205260408120906007820154600160801b900460ff166001811115620009b157620009b162003b2d565b14620009d0576040516390db0d0760e01b815260040160405180910390fd5b620009e18189898989898962002bed565b6006810180546fffffffffffffffff00000000000000001916600160401b6001600160401b038a16908102919091179091555f9081526002820160205260409020859055600581018690557f00000000000000000000000000000000000000000000000000000000000000006001600160a01b03166333d6247d62000a6562002119565b6040518263ffffffff1660e01b815260040162000a8491815260200190565b5f604051808303815f87803b15801562000a9c575f80fd5b505af115801562000aaf573d5f803e3d5ffd5b5050604080516001600160401b038b1681526020810189905290810189905233925063ffffffff8d1691507fd1ec3a1216f08b6eff72e169ceb548b782db18a6614852618d86bb19f3f9b0d3906060015b60405180910390a350505050505050505050565b335f9081527f8875b94af5657a2903def9906d67a3f42d8a836d24b5602c00f00fc855339fcd602052604090205460ff1662000be457608454600160801b90046001600160401b0316158062000b955750608454429062000b8a9062093a8090600160801b90046001600160401b03166200435c565b6001600160401b0316115b8062000bc55750608754429062000bba9062093a80906001600160401b03166200435c565b6001600160401b0316115b1562000be45760405163692baaad60e11b815260040160405180910390fd5b62000bee62002f24565b565b5f8281526034602052604090206001015462000c0c8162002be1565b62000c18838362002f9e565b505050565b6001600160a01b038116331462000c4757604051630b4ad1cd60e31b815260040160405180910390fd5b62000c53828262003022565b5050565b5f608654606462000c69919062004386565b905090565b7fab66e11c4f712cd06ab11bf9339b48bef39e12d4a22eeef71d2860a0c90482bd62000c9a8162002be1565b63ffffffff8216158062000cb95750607e5463ffffffff908116908316115b1562000cd857604051637512e5cb60e01b815260040160405180910390fd5b63ffffffff82165f908152607f602052604090206001810154600160e81b900460ff161562000d1a57604051633b8d3d9960e01b815260040160405180910390fd5b60018101805460ff60e81b1916600160e81b17905560405163ffffffff8416907f4710d2ee567ef1ed6eb2f651dde4589524bcf7cebc62147a99b281cc836e7e44905f90a2505050565b7fa0fab074aba36a6fa69f1a83ee86e5abfb8433966eb57efb13dc2fc2f24ddd0862000d908162002be1565b63ffffffff8816158062000daf5750607e5463ffffffff908116908916115b1562000dce57604051637512e5cb60e01b815260040160405180910390fd5b63ffffffff88165f908152607f602052604090206001810154600160e81b900460ff161562000e1057604051633b8d3d9960e01b815260040160405180910390fd5b63ffffffff6001600160401b038916111562000e3f57604051634c753f5760e01b815260040160405180910390fd5b6001600160401b0388165f9081526083602052604090205463ffffffff161562000e7c576040516337c8fe0960e11b815260040160405180910390fd5b608080545f9190829062000e969063ffffffff16620043a0565b825463ffffffff8281166101009490940a93840293021916919091179091558254604080515f80825260208201928390529394506001600160a01b0390921691309162000ee390620039a3565b62000ef193929190620043c5565b604051809103905ff08015801562000f0b573d5f803e3d5ffd5b5090508160835f8c6001600160401b03166001600160401b031681526020019081526020015f205f6101000a81548163ffffffff021916908363ffffffff1602179055508160825f836001600160a01b03166001600160a01b031681526020019081526020015f205f6101000a81548163ffffffff021916908363ffffffff1602179055505f60815f8463ffffffff1663ffffffff1681526020019081526020015f20905081815f015f6101000a8154816001600160a01b0302191690836001600160a01b031602179055508360010160149054906101000a90046001600160401b03168160010160146101000a8154816001600160401b0302191690836001600160401b03160217905550836001015f9054906101000a90046001600160a01b0316816001015f6101000a8154816001600160a01b0302191690836001600160a01b031602179055508a815f0160146101000a8154816001600160401b0302191690836001600160401b031602179055508360020154816002015f806001600160401b031681526020019081526020015f20819055508b63ffffffff168160070160086101000a8154816001600160401b0302191690836001600160401b0316021790555083600101601c9054906101000a900460ff168160070160106101000a81548160ff021916908360018111156200110b576200110b62003b2d565b0217905550600384015460098201556040805163ffffffff8e811682526001600160a01b0385811660208401526001600160401b038f16838501528b1660608301529151918516917f194c983456df6701c6a50830b90fe80e72b823411d0d524970c9590dc277a6419181900360800190a2604051633892b81160e11b81526001600160a01b03831690637125702290620011b5908d908d9088908e908e908e90600401620043f2565b5f604051808303815f87803b158015620011cd575f80fd5b505af1158015620011e0573d5f803e3d5ffd5b50505050505050505050505050505050565b60408051610180810182525f8082526020808301828152838501838152606085018481526080860185815260a0870186815260c0880187815260e089018881526101008a018981526101208b018a81526101408c018b90526101608c018b905263ffffffff8e168b5260819099529a90982080546001600160a01b038082168c52600160a01b918290046001600160401b0390811690995260018084015491821690985204871690945260058401549092526006830154808616909152600160401b9081900485169091526007820154808516909652850490921690955292939091600160801b900460ff1690811115620012f157620012f162003b2d565b9081600181111562001307576200130762003b2d565b905250600881015461014083015260090154610160820152919050565b63ffffffff86165f9081526081602052604090206060906200134b908787878787620030a4565b979650505050505050565b5f54600390610100900460ff161580156200137757505f5460ff8083169116105b620013ef5760405162461bcd60e51b815260206004820152602e60248201527f496e697469616c697a61626c653a20636f6e747261637420697320616c72656160448201527f647920696e697469616c697a656400000000000000000000000000000000000060648201526084015b60405180910390fd5b5f805461ffff191660ff831617610100179055604080518082018252600b81526a70657373696d697374696360a81b602082015290517f50cadc0c001f05dd4b81db1e92b98d77e718fd2f103fb7b77293e867d329a4c291620014529162003ee9565b60405180910390a15f805461ff001916905560405160ff821681527f7f26b83ff96e1f2b6a682f133852f6798a09c465da95921460cefb38474024989060200160405180910390a150565b7f084e94f375e9d647f87f5b2ceffba1e062c70f6009fdbcf80291e803b5c9edd4620014c98162002be1565b63ffffffff87165f90815260816020526040902060016007820154600160801b900460ff16600181111562001502576200150262003b2d565b146200152157604051633a64d97360e01b815260040160405180910390fd5b60405163ef4eeb3560e01b815263ffffffff881660048201525f907f00000000000000000000000000000000000000000000000000000000000000006001600160a01b03169063ef4eeb3590602401602060405180830381865afa1580156200158c573d5f803e3d5ffd5b505050506040513d601f19601f82011682018060405250810190620015b2919062004454565b905080620015d35760405163a60721e160e01b815260040160405180910390fd5b5f620015e38a84848b8b620031fb565b6001840154600985015460405163020a49e360e51b81529293506001600160a01b03909116916341493c6091620016239185908b908b906004016200446c565b5f6040518083038186803b1580156200163a575f80fd5b505afa1580156200164d573d5f803e3d5ffd5b50506084805467ffffffffffffffff60801b1916600160801b426001600160401b031602179055505060058301889055600883018790557f00000000000000000000000000000000000000000000000000000000000000006001600160a01b03166333d6247d620016bd62002119565b6040518263ffffffff1660e01b8152600401620016dc91815260200190565b5f604051808303815f87803b158015620016f4575f80fd5b505af115801562001707573d5f803e3d5ffd5b5050604080515f80825260208201529081018b905233925063ffffffff8d1691507fd1ec3a1216f08b6eff72e169ceb548b782db18a6614852618d86bb19f3f9b0d39060600162000b00565b335f9081527ff14f5a8ad59d90593602e905b358229bff5ceea677d5bf0f5a1701793550a9a6602052604090205460ff16158015620018065750336001600160a01b0316826001600160a01b031663f851a4406040518163ffffffff1660e01b8152600401602060405180830381865afa158015620017d4573d5f803e3d5ffd5b505050506040513d601f19601f82011682018060405250810190620017fa9190620044b9565b6001600160a01b031614155b156200182557604051630d03687f60e11b815260040160405180910390fd5b6001600160a01b0382165f9081526082602052604081205463ffffffff169081900362001865576040516374a086a360e01b815260040160405180910390fd5b63ffffffff81165f908152608160205260408120906007820154600160801b900460ff1660018111156200189d576200189d62003b2d565b14620018bc576040516390db0d0760e01b815260040160405180910390fd5b60068101546001600160401b0390811690841681111580620018f5575060068201546001600160401b03600160401b9091048116908516105b15620019145760405163cb23ebdf60e01b815260040160405180910390fd5b805b846001600160401b0316816001600160401b031614620019b8576001600160401b038082165f908152600385016020526040902060010154600160401b900481169086168110156200197b57604051639753965f60e01b815260040160405180910390fd5b6001600160401b039091165f908152600384016020526040812090815560010180546fffffffffffffffffffffffffffffffff1916905562001916565b60068301805467ffffffffffffffff19166001600160401b038716179055620019e28583620044d7565b608480545f90620019fe9084906001600160401b0316620044d7565b82546101009290920a6001600160401b0381810219909316918316021790915586165f8181526003860160205260409081902054905163334d6f6760e11b8152600481019290925260248201526001600160a01b038816915063669adece906044015f604051808303815f87803b15801562001a78575f80fd5b505af115801562001a8b573d5f803e3d5ffd5b505050506001600160401b0385165f81815260038501602090815260409182902054915191825263ffffffff8716917f80a6d395a55aed8126079cb8247f0a6848b1440ca2cdca3b4386f250c3529402910160405180910390a3505050505050565b7f3dfe277d2a2c04b75fb2eb3743fa00005ae3678a20c299e65fdf4df76517f68e62001b198162002be1565b6001600160401b0385165f9081526083602052604090205463ffffffff161562001b56576040516337c8fe0960e11b815260040160405180910390fd5b63ffffffff6001600160401b038616111562001b8557604051634c753f5760e01b815260040160405180910390fd5b6001600160a01b0388165f9081526082602052604090205463ffffffff161562001bc257604051630d409b9360e41b815260040160405180910390fd5b608080545f9190829062001bdc9063ffffffff16620043a0565b91906101000a81548163ffffffff021916908363ffffffff160217905590508060835f886001600160401b03166001600160401b031681526020019081526020015f205f6101000a81548163ffffffff021916908363ffffffff1602179055508060825f8b6001600160a01b03166001600160a01b031681526020019081526020015f205f6101000a81548163ffffffff021916908363ffffffff1602179055505f60815f8363ffffffff1663ffffffff1681526020019081526020015f20905089815f015f6101000a8154816001600160a01b0302191690836001600160a01b03160217905550878160010160146101000a8154816001600160401b0302191690836001600160401b0316021790555088816001015f6101000a8154816001600160a01b0302191690836001600160a01b0316021790555086815f0160146101000a8154816001600160401b0302191690836001600160401b03160217905550848160070160106101000a81548160ff0219169083600181111562001d665762001d6662003b2d565b0217905550600185600181111562001d825762001d8262003b2d565b0362001d9c57600981018490556005810186905562001daf565b5f80805260028201602052604090208690555b8163ffffffff167fd490df184152edba8455dac3228134939c71f8cb4c8f310c3145dec9037147ac898c8a895f8a60405162001df196959493929190620044fa565b60405180910390a250505050505050505050565b6040516370a0823160e01b81523060048201525f9081906001600160a01b037f000000000000000000000000000000000000000000000000000000000000000016906370a0823190602401602060405180830381865afa15801562001e6c573d5f803e3d5ffd5b505050506040513d601f19601f8201168201806040525081019062001e92919062004454565b6084549091505f9062001eb8906001600160401b03600160401b820481169116620044d7565b6001600160401b03169050805f0362001ed3575f9250505090565b62001edf81836200455b565b9250505090565b606f545f9060ff161562001f0d57604051630bc011ff60e21b815260040160405180910390fd5b335f9081526082602052604081205463ffffffff169081900362001f44576040516371653c1560e01b815260040160405180910390fd5b836001600160401b03165f0362001f6e57604051632590ccf960e01b815260040160405180910390fd5b63ffffffff81165f908152608160205260408120906007820154600160801b900460ff16600181111562001fa65762001fa662003b2d565b1462001fc5576040516390db0d0760e01b815260040160405180910390fd5b608480548691905f9062001fe49084906001600160401b03166200435c565b82546101009290920a6001600160401b0381810219909316918316021790915560068301541690505f6200201987836200435c565b6006840180546001600160401b0383811667ffffffffffffffff199092168217909255604080516060810182528a815242841660208083019182528886168385019081525f86815260038c018352859020935184559151600193909301805492518716600160401b026fffffffffffffffffffffffffffffffff199093169390961692909217179093555190815291925063ffffffff8616917f1d9f30260051d51d70339da239ea7b080021adcaabfa71c9b0ea339a20cf9a25910160405180910390a29695505050505050565b63ffffffff84165f9081526081602052604090206060906200210e908690868686620031fb565b90505b949350505050565b6080545f9063ffffffff168082036200213357505f919050565b5f816001600160401b038111156200214f576200214f62003bb6565b60405190808252806020026020018201604052801562002179578160200160208202803683370190505b5090505f5b82811015620021e95760815f6200219783600162004571565b63ffffffff1663ffffffff1681526020019081526020015f2060050154828281518110620021c957620021c962004587565b602090810291909101015280620021e0816200459b565b9150506200217e565b505f60205b8360011462002441575f62002205600286620045b6565b620022126002876200455b565b6200221e919062004571565b90505f816001600160401b038111156200223c576200223c62003bb6565b60405190808252806020026020018201604052801562002266578160200160208202803683370190505b5090505f5b82811015620023ed5762002281600184620045cc565b811480156200229c575062002298600288620045b6565b6001145b15620023245785620022b082600262004386565b81518110620022c357620022c362004587565b602002602001015185604051602001620022e7929190918252602082015260400190565b6040516020818303038152906040528051906020012082828151811062002312576200231262004587565b602002602001018181525050620023d8565b856200233282600262004386565b8151811062002345576200234562004587565b6020026020010151868260026200235d919062004386565b6200236a90600162004571565b815181106200237d576200237d62004587565b6020026020010151604051602001620023a0929190918252602082015260400190565b60405160208183030381529060405280519060200120828281518110620023cb57620023cb62004587565b6020026020010181815250505b80620023e4816200459b565b9150506200226b565b50809450819550838460405160200162002411929190918252602082015260400190565b60405160208183030381529060405280519060200120935082806200243690620045e2565b9350505050620021ee565b5f835f8151811062002457576200245762004587565b602002602001015190505f5b82811015620024d757604080516020810184905290810185905260600160408051601f19818403018152828252805160209182012090830187905290820186905292506060016040516020818303038152906040528051906020012093508080620024ce906200459b565b91505062002463565b5095945050505050565b7fac75d24dbb35ea80e25fab167da4dea46c1915260426570db84f184891f5f5906200250d8162002be1565b607e80545f91908290620025279063ffffffff16620043a0565b91906101000a81548163ffffffff021916908363ffffffff160217905590506001808111156200255b576200255b62003b2d565b86600181111562002570576200257062003b2d565b036200259c57841562002596576040516363d722e760e01b815260040160405180910390fd5b620025bc565b8215620025bc576040516363d722e760e01b815260040160405180910390fd5b6040518060e001604052808a6001600160a01b03168152602001896001600160a01b03168152602001886001600160401b0316815260200187600181111562002609576200260962003b2d565b81525f602080830182905260408084018a9052606093840188905263ffffffff86168352607f825291829020845181546001600160a01b0391821673ffffffffffffffffffffffffffffffffffffffff199091161782559185015160018281018054958801516001600160401b0316600160a01b026001600160e01b0319909616929094169190911793909317808355938501519093909260ff60e01b1990911690600160e01b908490811115620026c557620026c562003b2d565b02179055506080820151600182018054911515600160e81b0260ff60e81b1990921691909117905560a0820151600282015560c09091015160039091015560405163ffffffff8216907f9eaf2ecbddb14889c9e141a63175c55ac25e0cd7cdea312cdfbd0397976b383a9062002749908c908c908c908c908c908c908c90620045fa565b60405180910390a2505050505050505050565b7f66156603fe29d13f97c6f3e3dff4ef71919f9aa61c555be0182d954e94221aac620027888162002be1565b62002795848484620032e0565b50505050565b7f8cf807f6970720f8e2c208c7c5037595982c7bd9ed93c380d09df743d0dcc3fb620027c78162002be1565b683635c9adc5dea00000821180620027e25750633b9aca0082105b156200280157604051638586952560e01b815260040160405180910390fd5b60868290556040518281527ffb383653f53ee079978d0c9aff7aeff04a10166ce244cca9c9f9d8d96bed45b29060200160405180910390a15050565b5f82815260346020526040902060010154620028598162002be1565b62000c18838362003022565b7f62ba6ba2ffed8cfe316b583325ea41ac6e7ba9e5864d2bc6fabba7ac26d2f0f4620028918162002be1565b6087805467ffffffffffffffff1916426001600160401b031617905560408051636de0b4bb60e11b815290517f00000000000000000000000000000000000000000000000000000000000000006001600160a01b03169163dbc16976916004808301925f92919082900301818387803b1580156200290d575f80fd5b505af115801562002920573d5f803e3d5ffd5b505050506200292e620035c6565b50565b336001600160a01b0316826001600160a01b031663f851a4406040518163ffffffff1660e01b8152600401602060405180830381865afa15801562002978573d5f803e3d5ffd5b505050506040513d601f19601f820116820180604052508101906200299e9190620044b9565b6001600160a01b031614620029c65760405163696072e960e01b815260040160405180910390fd5b6001600160a01b0382165f9081526082602090815260408083205463ffffffff1683526081909152902060068101546001600160401b03808216600160401b909204161462002a285760405163664316a560e11b815260040160405180910390fd5b600781015463ffffffff8316600160401b9091046001600160401b03161062002a6457604051633e37e23360e01b815260040160405180910390fd5b604080515f81526020810190915262000c189084908490620032e0565b62002ae660408051610180810182525f80825260208201819052918101829052606081018290526080810182905260a0810182905260c0810182905260e081018290526101008101829052610120810182905261014081018290529061016082015290565b63ffffffff82165f9081526081602090815260409182902080546001600160a01b038082168652600160a01b918290046001600160401b039081169487019490945260018084015491821695870195909552048216606085015260058101546080850152600681015480831660a0860152600160401b808204841660c0870152600160801b808304851660e0880152600160c01b9092048416610100870152600783015480851661012088015290810490931661014086015290926101608501929190910460ff169081111562002bc15762002bc162003b2d565b9081600181111562002bd75762002bd762003b2d565b8152505050919050565b6200292e81336200361e565b5f8062002c0c89600601546001600160401b03600160401b9091041690565b60078a01549091506001600160401b03908116908916101562002c425760405163ead1340b60e01b815260040160405180910390fd5b6001600160401b0388165f90815260028a01602052604090205491508162002c7d576040516324cbdcc360e11b815260040160405180910390fd5b806001600160401b0316886001600160401b0316111562002cb157604051630f2b74f160e11b815260040160405180910390fd5b806001600160401b0316876001600160401b03161162002ce45760405163b9b18f5760e01b815260040160405180910390fd5b5f62002cf58a8a8a8a878b620030a4565b90505f7f30644e72e131a029b85045b68181585d2833e84879b9709143e1f593f000000160028360405162002d2b91906200465d565b602060405180830381855afa15801562002d47573d5f803e3d5ffd5b5050506040513d601f19601f8201168201806040525081019062002d6c919062004454565b62002d789190620045b6565b60018c0154604080516020810182528381529051634890ed4560e11b81529293506001600160a01b0390911691639121da8a9162002dbc918991906004016200467a565b602060405180830381865afa15801562002dd8573d5f803e3d5ffd5b505050506040513d601f19601f8201168201806040525081019062002dfe9190620046b6565b62002e1c576040516309bde33960e01b815260040160405180910390fd5b5f62002e29848b620044d7565b905062002e8287826001600160401b031662002e4462001e05565b62002e50919062004386565b6001600160a01b037f000000000000000000000000000000000000000000000000000000000000000016919062003661565b80608460088282829054906101000a90046001600160401b031662002ea891906200435c565b82546101009290920a6001600160401b038181021990931691831602179091556084805467ffffffffffffffff60801b1916600160801b428416021790558d546040516332c2d15360e01b8152918d166004830152602482018b90523360448301526001600160a01b031691506332c2d15390606401620011b5565b7f00000000000000000000000000000000000000000000000000000000000000006001600160a01b0316632072f6c56040518163ffffffff1660e01b81526004015f604051808303815f87803b15801562002f7d575f80fd5b505af115801562002f90573d5f803e3d5ffd5b5050505062000bee620036ca565b5f8281526034602090815260408083206001600160a01b038516845290915290205460ff1662000c53575f8281526034602090815260408083206001600160a01b0385168085529252808320805460ff1916600117905551339285917f2f8788117e7eff1d82e926ec794901d17c78024a50270940304540a733656f0d9190a45050565b5f8281526034602090815260408083206001600160a01b038516845290915290205460ff161562000c53575f8281526034602090815260408083206001600160a01b0385168085529252808320805460ff1916905551339285917ff6391f5c32d9c69d2a47ea670b442974b53935d1edc7fd64eb21e047a839171b9190a45050565b6001600160401b038086165f8181526003890160205260408082205493881682529020546060929115801590620030d9575081155b15620030f85760405163340c614f60e11b815260040160405180910390fd5b8062003117576040516366385b5160e01b815260040160405180910390fd5b620031228462003726565b62003140576040516305dae44f60e21b815260040160405180910390fd5b885460018a01546040516bffffffffffffffffffffffff193360601b16602082015260348101889052605481018590527fffffffffffffffff00000000000000000000000000000000000000000000000060c08c811b82166074840152600160a01b94859004811b8216607c84015293909204831b82166084820152608c810187905260ac810184905260cc81018990529189901b1660ec82015260f401604051602081830303815290604052925050509695505050505050565b60605f855f015f9054906101000a90046001600160a01b03166001600160a01b031663ad1edf346040518163ffffffff1660e01b8152600401602060405180830381865afa15801562003250573d5f803e3d5ffd5b505050506040513d601f19601f8201168201806040525081019062003276919062004454565b60058701546008880154604080516020810193909352820152606081018790526001600160e01b031960e08a901b1660808201526084810182905260a4810186905260c4810185905290915060e40160405160208183030381529060405291505095945050505050565b63ffffffff82161580620032ff5750607e5463ffffffff908116908316115b156200331e57604051637512e5cb60e01b815260040160405180910390fd5b6001600160a01b0383165f9081526082602052604081205463ffffffff16908190036200335e576040516374a086a360e01b815260040160405180910390fd5b63ffffffff8181165f908152608160205260409020600781015490918516600160401b9091046001600160401b031603620033ac57604051634f61d51960e01b815260040160405180910390fd5b63ffffffff84165f908152607f602052604090206001810154600160e81b900460ff1615620033ee57604051633b8d3d9960e01b815260040160405180910390fd5b600181810154600160e01b900460ff169081111562003411576200341162003b2d565b6007830154600160801b900460ff16600181111562003434576200343462003b2d565b146200345357604051635aa0d5f160e11b815260040160405180910390fd5b60018082018054918401805473ffffffffffffffffffffffffffffffffffffffff1981166001600160a01b03909416938417825591546001600160401b03600160a01b9182900416026001600160e01b031990921690921717905560038101546009830155600782018054600160401b63ffffffff8816026fffffffffffffffff0000000000000000199091161790555f620034ef84620008f5565b60078401805467ffffffffffffffff19166001600160401b038316179055825460405163278f794360e11b81529192506001600160a01b0389811692634f1ef28692620035439216908990600401620046d7565b5f604051808303815f87803b1580156200355b575f80fd5b505af11580156200356e573d5f803e3d5ffd5b50506040805163ffffffff8a811682526001600160401b0386166020830152881693507ff585e04c05d396901170247783d3e5f0ee9c1df23072985b50af089f5e48b19d92500160405180910390a250505050505050565b606f5460ff16620035ea57604051635386698160e01b815260040160405180910390fd5b606f805460ff191690556040517f1e5e34eea33501aecf2ebec9fe0e884a40804275ea7fe10b2ba084c8374308b3905f90a1565b5f8281526034602090815260408083206001600160a01b038516845290915290205460ff1662000c5357604051637615be1f60e11b815260040160405180910390fd5b604080516001600160a01b038416602482015260448082018490528251808303909101815260649091019091526020810180517bffffffffffffffffffffffffffffffffffffffffffffffffffffffff1663a9059cbb60e01b17905262000c18908490620037af565b606f5460ff1615620036ef57604051630bc011ff60e21b815260040160405180910390fd5b606f805460ff191660011790556040517f2261efe5aef6fedc1fd1550b25facc9181745623049c7901287030b9ad1a5497905f90a1565b5f67ffffffff000000016001600160401b0383161080156200375c575067ffffffff00000001604083901c6001600160401b0316105b80156200377d575067ffffffff00000001608083901c6001600160401b0316105b801562003795575067ffffffff0000000160c083901c105b15620037a357506001919050565b505f919050565b919050565b5f62003805826040518060400160405280602081526020017f5361666545524332303a206c6f772d6c6576656c2063616c6c206661696c6564815250856001600160a01b0316620038879092919063ffffffff16565b80519091501562000c185780806020019051810190620038269190620046b6565b62000c185760405162461bcd60e51b815260206004820152602a60248201527f5361666545524332303a204552433230206f7065726174696f6e20646964206e6044820152691bdd081cdd58d8d9595960b21b6064820152608401620013e6565b60606200211184845f85855f80866001600160a01b03168587604051620038af91906200465d565b5f6040518083038185875af1925050503d805f8114620038eb576040519150601f19603f3d011682016040523d82523d5f602084013e620038f0565b606091505b50915091506200134b8783838760608315620039705782515f0362003968576001600160a01b0385163b620039685760405162461bcd60e51b815260206004820152601d60248201527f416464726573733a2063616c6c20746f206e6f6e2d636f6e74726163740000006044820152606401620013e6565b508162002111565b620021118383815115620039875781518083602001fd5b8060405162461bcd60e51b8152600401620013e6919062003ee9565b61091d80620046fb83390190565b803563ffffffff81168114620037aa575f80fd5b5f60208284031215620039d6575f80fd5b620039e182620039b1565b9392505050565b80356001600160401b0381168114620037aa575f80fd5b6001600160a01b03811681146200292e575f80fd5b5f805f805f805f806103e0808a8c03121562003a2e575f80fd5b62003a398a620039b1565b985062003a4960208b01620039e8565b975062003a5960408b01620039e8565b965062003a6960608b01620039e8565b955060808a0135945060a08a0135935060c08a013562003a8981620039ff565b92508981018b101562003a9a575f80fd5b5060e0890190509295985092959890939650565b5f6020828403121562003abf575f80fd5b5035919050565b5f806040838503121562003ad8575f80fd5b62003ae383620039b1565b915062003af360208401620039e8565b90509250929050565b5f806040838503121562003b0e575f80fd5b82359150602083013562003b2281620039ff565b809150509250929050565b634e487b7160e01b5f52602160045260245ffd5b6002811062003b5e57634e487b7160e01b5f52602160045260245ffd5b9052565b6001600160a01b038881168252871660208201526001600160401b038616604082015260e0810162003b98606083018762003b41565b931515608082015260a081019290925260c090910152949350505050565b634e487b7160e01b5f52604160045260245ffd5b5f6001600160401b038084111562003be65762003be662003bb6565b604051601f8501601f19908116603f0116810190828211818310171562003c115762003c1162003bb6565b8160405280935085815286868601111562003c2a575f80fd5b858560208301375f602087830101525050509392505050565b5f82601f83011262003c53575f80fd5b620039e18383356020850162003bca565b5f805f805f805f60e0888a03121562003c7b575f80fd5b62003c8688620039b1565b965062003c9660208901620039e8565b9550604088013562003ca881620039ff565b9450606088013562003cba81620039ff565b9350608088013562003ccc81620039ff565b925060a08801356001600160401b038082111562003ce8575f80fd5b62003cf68b838c0162003c43565b935060c08a013591508082111562003d0c575f80fd5b5062003d1b8a828b0162003c43565b91505092959891949750929550565b81516001600160a01b031681526101808101602083015162003d5760208401826001600160401b03169052565b50604083015162003d7360408401826001600160a01b03169052565b50606083015162003d8f60608401826001600160401b03169052565b506080830151608083015260a083015162003db560a08401826001600160401b03169052565b5060c083015162003dd160c08401826001600160401b03169052565b5060e083015162003ded60e08401826001600160401b03169052565b50610100838101516001600160401b0316908301526101208084015162003e178285018262003b41565b5050610140838101519083015261016092830151929091019190915290565b5f805f805f8060c0878903121562003e4c575f80fd5b62003e5787620039b1565b955062003e6760208801620039e8565b945062003e7760408801620039e8565b9350606087013592506080870135915060a087013590509295509295509295565b5f5b8381101562003eb457818101518382015260200162003e9a565b50505f910152565b5f815180845262003ed581602086016020860162003e98565b601f01601f19169290920160200192915050565b602081525f620039e1602083018462003ebc565b5f6020828403121562003f0e575f80fd5b620039e182620039e8565b5f805f805f8060a0878903121562003f2f575f80fd5b62003f3a87620039b1565b955062003f4a60208801620039b1565b9450604087013593506060870135925060808701356001600160401b038082111562003f74575f80fd5b818901915089601f83011262003f88575f80fd5b81358181111562003f97575f80fd5b8a602082850101111562003fa9575f80fd5b6020830194508093505050509295509295509295565b5f806040838503121562003fd1575f80fd5b823562003ae381620039ff565b803560028110620037aa575f80fd5b5f805f805f805f60e0888a03121562004004575f80fd5b87356200401181620039ff565b965060208801356200402381620039ff565b95506200403360408901620039e8565b94506200404360608901620039e8565b9350608088013592506200405a60a0890162003fde565b915060c0880135905092959891949750929550565b5f806040838503121562004081575f80fd5b6200408c83620039e8565b946020939093013593505050565b5f805f8060808587031215620040ae575f80fd5b620040b985620039b1565b966020860135965060408601359560600135945092505050565b5f805f805f805f60e0888a031215620040ea575f80fd5b8735620040f781620039ff565b965060208801356200410981620039ff565b95506200411960408901620039e8565b9450620041296060890162003fde565b93506080880135925060a08801356001600160401b038111156200414b575f80fd5b620041598a828b0162003c43565b92505060c0880135905092959891949750929550565b5f805f6060848603121562004182575f80fd5b83356200418f81620039ff565b92506200419f60208501620039b1565b915060408401356001600160401b03811115620041ba575f80fd5b8401601f81018613620041cb575f80fd5b620041dc8682356020840162003bca565b9150509250925092565b5f60208284031215620041f7575f80fd5b8135620039e181620039ff565b5f806040838503121562004216575f80fd5b82356200422381620039ff565b915062003af360208401620039b1565b81516001600160a01b03168152610180810160208301516200426060208401826001600160401b03169052565b5060408301516200427c60408401826001600160a01b03169052565b5060608301516200429860608401826001600160401b03169052565b506080830151608083015260a0830151620042be60a08401826001600160401b03169052565b5060c0830151620042da60c08401826001600160401b03169052565b5060e0830151620042f660e08401826001600160401b03169052565b50610100838101516001600160401b039081169184019190915261012080850151821690840152610140808501519091169083015261016080840151620043408285018262003b41565b505092915050565b634e487b7160e01b5f52601160045260245ffd5b6001600160401b038181168382160190808211156200437f576200437f62004348565b5092915050565b80820281158282048414176200091e576200091e62004348565b5f63ffffffff808316818103620043bb57620043bb62004348565b6001019392505050565b5f6001600160a01b038086168352808516602084015250606060408301526200210e606083018462003ebc565b5f6001600160a01b038089168352808816602084015263ffffffff8716604084015280861660608401525060c060808301526200443360c083018562003ebc565b82810360a084015262004447818562003ebc565b9998505050505050505050565b5f6020828403121562004465575f80fd5b5051919050565b848152606060208201525f62004486606083018662003ebc565b8281036040840152838152838560208301375f602085830101526020601f19601f86011682010191505095945050505050565b5f60208284031215620044ca575f80fd5b8151620039e181620039ff565b6001600160401b038281168282160390808211156200437f576200437f62004348565b6001600160401b0387811682526001600160a01b0387166020830152858116604083015260c082019062004532606084018762003b41565b93909316608082015260a00152949350505050565b634e487b7160e01b5f52601260045260245ffd5b5f826200456c576200456c62004547565b500490565b808201808211156200091e576200091e62004348565b634e487b7160e01b5f52603260045260245ffd5b5f60018201620045af57620045af62004348565b5060010190565b5f82620045c757620045c762004547565b500690565b818103818111156200091e576200091e62004348565b5f81620045f357620045f362004348565b505f190190565b6001600160a01b038881168252871660208201526001600160401b03861660408201525f6200462d606083018762003b41565b84608083015260e060a08301526200464960e083018562003ebc565b90508260c083015298975050505050505050565b5f82516200467081846020870162003e98565b9190910192915050565b6103208101610300808584378201835f5b6001811015620046ac5781518352602092830192909101906001016200468b565b5050509392505050565b5f60208284031215620046c7575f80fd5b81518015158114620039e1575f80fd5b6001600160a01b0383168152604060208201525f62002111604083018462003ebc56fe60a06040526040516200091d3803806200091d833981016040819052620000269162000375565b828162000034828262000060565b50506001600160a01b038216608052620000576200005160805190565b620000c5565b5050506200046c565b6200006b8262000136565b6040516001600160a01b038316907fbc7cd75a20ee27fd9adebab32041f755214dbc6bffa90cc0225b39da2e5c2d3b905f90a2805115620000b757620000b28282620001b5565b505050565b620000c16200022e565b5050565b7f7e644d79422f17c01e4894b5f4f588d331ebfa28653d42ae832dc59e38c9798f620001065f80516020620008fd833981519152546001600160a01b031690565b604080516001600160a01b03928316815291841660208301520160405180910390a1620001338162000250565b50565b806001600160a01b03163b5f036200017157604051634c9c8ce360e01b81526001600160a01b03821660048201526024015b60405180910390fd5b807f360894a13ba1a3210667c828492db98dca3e2076cc3735a920a3ca505d382bbc5b80546001600160a01b0319166001600160a01b039290921691909117905550565b60605f80846001600160a01b031684604051620001d391906200044f565b5f60405180830381855af49150503d805f81146200020d576040519150601f19603f3d011682016040523d82523d5f602084013e62000212565b606091505b5090925090506200022585838362000291565b95945050505050565b34156200024e5760405163b398979f60e01b815260040160405180910390fd5b565b6001600160a01b0381166200027b57604051633173bdd160e11b81525f600482015260240162000168565b805f80516020620008fd83398151915262000194565b606082620002aa57620002a482620002f7565b620002f0565b8151158015620002c257506001600160a01b0384163b155b15620002ed57604051639996b31560e01b81526001600160a01b038516600482015260240162000168565b50805b9392505050565b805115620003085780518082602001fd5b604051630a12f52160e11b815260040160405180910390fd5b80516001600160a01b038116811462000338575f80fd5b919050565b634e487b7160e01b5f52604160045260245ffd5b5f5b838110156200036d57818101518382015260200162000353565b50505f910152565b5f805f6060848603121562000388575f80fd5b620003938462000321565b9250620003a36020850162000321565b60408501519092506001600160401b0380821115620003c0575f80fd5b818601915086601f830112620003d4575f80fd5b815181811115620003e957620003e96200033d565b604051601f8201601f19908116603f011681019083821181831017156200041457620004146200033d565b816040528281528960208487010111156200042d575f80fd5b6200044083602083016020880162000351565b80955050505050509250925092565b5f82516200046281846020870162000351565b9190910192915050565b608051610479620004845f395f601001526104795ff3fe608060405261000c61000e565b005b7f00000000000000000000000000000000000000000000000000000000000000006001600160a01b03163303610081575f357fffffffff000000000000000000000000000000000000000000000000000000001663278f794360e11b1461007957610077610085565b565b610077610095565b6100775b6100776100906100c3565b6100fa565b5f806100a43660048184610313565b8101906100b1919061034e565b915091506100bf8282610118565b5050565b5f6100f57f360894a13ba1a3210667c828492db98dca3e2076cc3735a920a3ca505d382bbc546001600160a01b031690565b905090565b365f80375f80365f845af43d5f803e808015610114573d5ff35b3d5ffd5b61012182610172565b6040516001600160a01b038316907fbc7cd75a20ee27fd9adebab32041f755214dbc6bffa90cc0225b39da2e5c2d3b905f90a280511561016a5761016582826101fa565b505050565b6100bf61026c565b806001600160a01b03163b5f036101ac57604051634c9c8ce360e01b81526001600160a01b03821660048201526024015b60405180910390fd5b7f360894a13ba1a3210667c828492db98dca3e2076cc3735a920a3ca505d382bbc805473ffffffffffffffffffffffffffffffffffffffff19166001600160a01b0392909216919091179055565b60605f80846001600160a01b0316846040516102169190610417565b5f60405180830381855af49150503d805f811461024e576040519150601f19603f3d011682016040523d82523d5f602084013e610253565b606091505b509150915061026385838361028b565b95945050505050565b34156100775760405163b398979f60e01b815260040160405180910390fd5b6060826102a05761029b826102ea565b6102e3565b81511580156102b757506001600160a01b0384163b155b156102e057604051639996b31560e01b81526001600160a01b03851660048201526024016101a3565b50805b9392505050565b8051156102fa5780518082602001fd5b604051630a12f52160e11b815260040160405180910390fd5b5f8085851115610321575f80fd5b8386111561032d575f80fd5b5050820193919092039150565b634e487b7160e01b5f52604160045260245ffd5b5f806040838503121561035f575f80fd5b82356001600160a01b0381168114610375575f80fd5b9150602083013567ffffffffffffffff80821115610391575f80fd5b818501915085601f8301126103a4575f80fd5b8135818111156103b6576103b661033a565b604051601f8201601f19908116603f011681019083821181831017156103de576103de61033a565b816040528281528860208487010111156103f6575f80fd5b826020860160208301375f6020848301015280955050505050509250929050565b5f82515f5b81811015610436576020818601810151858301520161041c565b505f92019182525091905056fea264697066735822122021e23b4641727aa4aa8fd2d3ef7960a43cab420d4c8632503bedc3eb2d30690764736f6c63430008140033b53127684a568b3173ae13b9f8a6016e243e63b6e8ee1178d6a717850b5d6103a2646970667358221220214b2666bb6e2771614820f1fc68d70cdf88a8640c33fd376a6a976c4ac5a78a64736f6c63430008140033",
  "linkReferences": {},
  "deployedLinkReferences": {}
}