{
  "_format": "hh-sol-artifact-1",
  "contractName": "PolygonZkEVMGlobalExitRootMock",
  "sourceName": "contracts/mocks/PolygonZkEVMGlobalExitRootMock.sol",
  "abi": [
    {
      "inputs": [
        {
          "internalType": "address",
          "name": "_rollupAddress",
          "type": "address"
        },
        {
          "internalType": "address",
          "name": "_bridgeAddress",
          "type": "address"
        }
      ],
      "stateMutability": "nonpayable",
      "type": "constructor"
    },
    {
      "inputs": [],
      "name": "GlobalExitRootAlreadySet",
      "type": "error"
    },
    {
      "inputs": [],
      "name": "GlobalExitRootNotFound",
      "type": "error"
    },
    {
      "inputs": [],
      "name": "InvalidZeroAddress",
      "type": "error"
    },
    {
      "inputs": [],
      "name": "OnlyAllowedContracts",
      "type": "error"
    },
    {
      "inputs": [],
      "name": "OnlyGlobalExitRootRemover",
      "type": "error"
    },
    {
      "inputs": [],
      "name": "OnlyGlobalExitRootUpdater",
      "type": "error"
    },
    {
      "inputs": [],
      "name": "OnlyPendingGlobalExitRootRemover",
      "type": "error"
    },
    {
      "inputs": [],
      "name": "OnlyPendingGlobalExitRootUpdater",
      "type": "error"
    },
    {
      "anonymous": false,
      "inputs": [
        {
          "indexed": true,
          "internalType": "bytes32",
          "name": "mainnetExitRoot",
          "type": "bytes32"
        },
        {
          "indexed": true,
          "internalType": "bytes32",
          "name": "rollupExitRoot",
          "type": "bytes32"
        }
      ],
      "name": "UpdateGlobalExitRoot",
      "type": "event"
    },
    {
      "inputs": [],
      "name": "bridgeAddress",
      "outputs": [
        {
          "internalType": "address",
          "name": "",
          "type": "address"
        }
      ],
      "stateMutability": "view",
      "type": "function"
    },
    {
      "inputs": [],
      "name": "getLastGlobalExitRoot",
      "outputs": [
        {
          "internalType": "bytes32",
          "name": "",
          "type": "bytes32"
        }
      ],
      "stateMutability": "view",
      "type": "function"
    },
    {
      "inputs": [
        {
          "internalType": "bytes32",
          "name": "",
          "type": "bytes32"
        }
      ],
      "name": "globalExitRootMap",
      "outputs": [
        {
          "internalType": "uint256",
          "name": "",
          "type": "uint256"
        }
      ],
      "stateMutability": "view",
      "type": "function"
    },
    {
      "inputs": [],
      "name": "lastMainnetExitRoot",
      "outputs": [
        {
          "internalType": "bytes32",
          "name": "",
          "type": "bytes32"
        }
      ],
      "stateMutability": "view",
      "type": "function"
    },
    {
      "inputs": [],
      "name": "lastRollupExitRoot",
      "outputs": [
        {
          "internalType": "bytes32",
          "name": "",
          "type": "bytes32"
        }
      ],
      "stateMutability": "view",
      "type": "function"
    },
    {
      "inputs": [],
      "name": "rollupAddress",
      "outputs": [
        {
          "internalType": "address",
          "name": "",
          "type": "address"
        }
      ],
      "stateMutability": "view",
      "type": "function"
    },
    {
      "inputs": [
        {
          "internalType": "bytes32",
          "name": "globalExitRoot",
          "type": "bytes32"
        },
        {
          "internalType": "uint256",
          "name": "timestamp",
          "type": "uint256"
        }
      ],
      "name": "setGlobalExitRoot",
      "outputs": [],
      "stateMutability": "nonpayable",
      "type": "function"
    },
    {
      "inputs": [
        {
          "internalType": "uint256",
          "name": "timestamp",
          "type": "uint256"
        }
      ],
      "name": "setLastGlobalExitRoot",
      "outputs": [],
      "stateMutability": "nonpayable",
      "type": "function"
    },
    {
      "inputs": [
        {
          "internalType": "bytes32",
          "name": "newRoot",
          "type": "bytes32"
        }
      ],
      "name": "updateExitRoot",
      "outputs": [],
      "stateMutability": "nonpayable",
      "type": "function"
    }
  ],
  "bytecode": "0x60c060405234801561000f575f5ffd5b5060405161043a38038061043a83398101604081905261002e91610060565b6001600160a01b0391821660a05216608052610091565b80516001600160a01b038116811461005b575f5ffd5b919050565b5f5f60408385031215610071575f5ffd5b61007a83610045565b915061008860208401610045565b90509250929050565b60805160a05161037a6100c05f395f818161013a015261022c01525f818161018601526101e3015261037a5ff3fe608060405234801561000f575f5ffd5b506004361061009f575f3560e01c806333d6247d116100725780635bcef673116100585780635bcef673146101165780635ec6a8df14610135578063a3c573eb14610181575f5ffd5b806333d6247d146100fb5780633ed691ef1461010e575f5ffd5b806301fd9044146100a3578063051a9e28146100be578063257b3632146100d3578063319cf735146100f2575b5f5ffd5b6100ab5f5481565b6040519081526020015b60405180910390f35b6100d16100cc36600461030d565b6101a8565b005b6100ab6100e136600461030d565b60026020525f908152604090205481565b6100ab60015481565b6100d161010936600461030d565b6101c7565b6100ab6102f1565b6100d1610124366004610324565b5f9182526002602052604090912055565b61015c7f000000000000000000000000000000000000000000000000000000000000000081565b60405173ffffffffffffffffffffffffffffffffffffffff90911681526020016100b5565b61015c7f000000000000000000000000000000000000000000000000000000000000000081565b8060025f6101b46102f1565b815260208101919091526040015f205550565b5f5460015473ffffffffffffffffffffffffffffffffffffffff7f00000000000000000000000000000000000000000000000000000000000000001633036102155750600182905581610290565b73ffffffffffffffffffffffffffffffffffffffff7f000000000000000000000000000000000000000000000000000000000000000016330361025e575f839055829150610290565b6040517fb49365dd00000000000000000000000000000000000000000000000000000000815260040160405180910390fd5b5f8181526020838152604080832080845260029092528220549091036102eb575f8181526002602052604080822042905551849184917f61014378f82a0d809aefaf87a8ac9505b89c321808287a6e7810f29304c1fce39190a35b50505050565b5f6103086001545f545f9182526020526040902090565b905090565b5f6020828403121561031d575f5ffd5b5035919050565b5f5f60408385031215610335575f5ffd5b5050803592602090910135915056fea2646970667358221220ea1f56ca0c102354818fd322eea8a31a9c8128b8aa291ea5cfcef423c0c2785164736f6c634300081c0033",
  "linkReferences": {},
  "deployedLinkReferences": {}
}